:020000040800F2
:1000000048330020A1010008F943000845390008E1
:10001000F5430008F708000829590008000000000F
:10002000000000000000000000000000D54D0008A6
:10003000470A000800000000B14A0008294E0008E5
:10004000BB010008BB010008BB010008BB010008A0
:10005000BB010008BB010008BB010008BB01000890
:10006000BB010008BB010008BB010008BB01000880
:10007000FD080008BB010008BB010008BB01000827
:100080000D0900081D090008BB010008BB0100089C
:10009000BB010008BB010008BB010008BB01000850
:1000A000014F0008BB010008BB010008BB010008AC
:1000B000BB010008BB010008BB010008BB01000830
:1000C000BB010008BB010008BB010008BB01000820
:1000D000BB010008E9580008F95800080959000850
:1000E000BB010008BB010008BB010008BB01000800
:1000F000BB010008BB010008BB010008BB010008F0
:10010000BB010008BB010008BB010008BB010008DF
:1001100069530008AD530008BB010008194F0008DF
:10012000BB010008BB010008BB010008BB010008BF
:10013000BB010008BB010008BB010008BB010008AF
:10014000BB010008BB010008BB010008BB0100089F
:10015000BB0100082D090008BB010008195900085F
:10016000BB010008BB010008BB010008BB0100087F
:10017000BB010008BB010008BB0100080000000033
:10018000BB010008BB010008DFF810D000F076FBCF
:1001900000480047C9730008AFF3008048330020CF
:1001A0000648804706480047FEE7FEE7FEE7FEE711
:1001B000FEE7FEE7FEE7FEE7FEE7FEE7ED4E00089E
:1001C000890100082DE9F05F0546002092469B4614
:1001D00088460646814640241BE02846414647465D
:1001E000224600F07CFA53465A46C01A914110D379
:1001F00011461846224600F063FA2D1A67EB0108F3
:100200004F4622460120002100F05AFA17EB000960
:100210004E41201EA4F10104DFDC484631462A4647
:100220004346BDE8F09FD2B201E000F8012B491E21
:10023000FBD270470022F6E710B513460A46044683
:100240001946FFF7F0FF204610BD30B504460020E8
:10025000034600E05B1C934203D2E05CCD5C401B94
:10026000F8D030BD2DE9FE4F804681EA0300C00F73
:100270000C46009021F0004123F00045B8EB02004D
:10028000A94105D24046214690461C460B460246EF
:1002900023F00040104347D0270DC7F30A00C3F3F3
:1002A0000A510290401A019040286BDAC3F3130000
:1002B00040F4801B0098924620B10023D2EB030A41
:1002C00063EB0B0B01985946C0F14002504600F019
:1002D000F7F906460D4650465946019A00F00FFAC6
:1002E00010EB08006141002487EA115284EAE773A9
:1002F0001A4340D0009A62B3019A012A4FEA07528A
:1003000015DC001B61EB02014FF0004202EA0752CC
:10031000CDE90042001C41F5801132462B4600F029
:1003200046FA03B0BDE8F08F40462146F9E7001BCE
:1003300061EB0201001C41F5801300185B4120189D
:10034000A2F5001747EB030140EAD570B6196D41DD
:1003500011E06D084FEA360645EAC0754FEA0752CC
:10036000001B61EB0201001C41F5801149084FEAB6
:1003700030000019514132462B4603B0BDE8F04F22
:1003800000F006BA0098012240000023D0EB0202E0
:1003900063EBE073009821464FEAE074B8EB00008D
:1003A00061EB0401E9E783F000435BE781F0004182
:1003B00058E72DE9FE4F81EA030404F0004421F0E0
:1003C000004100944FF0000B23F0004350EA010479
:1003D0005ED052EA03045BD0C3F30A54C1F30A555A
:1003E0002C44A4F2F3340194A0FB0254C1F3130192
:1003F00041F48011C3F3130343F4801301FB02445F
:1004000000FB034E840A970A44EA815447EA835763
:10041000A4FB076802958D0A05FB07854FEA932C1C
:1004200004FB0C542705029D4FEA065847EA16378D
:10043000B5EB08056EEB070C870E920E47EA8117A5
:1004400042EA8312A7FB0201B6EB0B0164EB000446
:100450002B0D43EA0C335E1844EB1C50DA46514630
:10046000E7FB0201C5F313044FEA0B3343EA1453CD
:100470004FEA0432019C43EA0603A4F10C040294FF
:10048000009CCDE900B400F092F903B0BDE8F08F14
:1004900000200146F9E72DE9F04D81EA030404F05C
:1004A000004B21F0004514464FF0000A23F00041B4
:1004B00050EA050220D054EA01021DD0C5F30A57C4
:1004C0000246C5F31303C1F31300C1F30A5640F407
:1004D000801543F48013A7EB0608101BD64608F2DC
:1004E000FD3873EB050002D308F1010801E0921812
:1004F0005B41B8F1000F03DA00200146BDE8F08D42
:1005000000204FF48011064684460EE0171B73EB63
:10051000050705D3121B63EB050306434CEA010CE8
:1005200049084FEA300092185B4150EA0107EDD1CB
:1005300052EA030012D082EA040083EA050108436C
:1005400005D0101BAB4106D20122002306E0002299
:100550004FF0004302E06FF0010253101AEB060067
:100560004CEB085110EB0A0041EB0B01BDE8F04DDC
:1005700000F00EB90EB5C10F80EAE0700844CA075A
:10058000002140F233438DE80E000A460B4600F08E
:100590000EF903B000BD70B5C1F30A5201F0004579
:1005A0000024C1F3130140F2FF3341F480119A4259
:1005B00001DA002070BD40F233439A42A2F2334286
:1005C00003DC524200F08BF800E090402C43F1D065
:1005D000404270BDC1F30A5210B5C1F3130140F29D
:1005E000FF3341F480119A4201DA002010BD40F23D
:1005F00033439A42A2F2334203DC524200F06FF8D6
:1006000010BD904010BD00F0004230F000400AD014
:10061000C10D01F56071C0F3160042EA0151C20834
:1006200040071143704700200146704730B5041E53
:1006300071F1000404DB4FF00044404264EB01011F
:10064000141E73F1000405DB1C464FF000435242B8
:1006500063EB0403994208BF904230BD01F00043B0
:1006600030B421F0004150EA010206D00A0DA2F593
:100670006072C1F31301002A02DC30BC0020704715
:10068000440F44EAC104C100E01830BC00EBC25082
:1006900000F047B830B50B46014600202022012467
:1006A00009E021FA02F59D4205D303FA02F5491B40
:1006B00004FA02F52844151EA2F10102F1DC30BD56
:1006C000202A04DB203A00FA02F100207047914012
:1006D000C2F1200320FA03F3194390407047202A07
:1006E00004DB203A21FA02F00021704721FA02F3DC
:1006F000D040C2F120029140084319467047202A99
:1007000006DBCB17203A41FA02F043EAE07306E039
:1007100041FA02F3D040C2F1200291400843194649
:1007200070470029A8BF7047401C490008BF20F04F
:100730000100704710B4B0FA80FC00FA0CF050EAE7
:10074000010404BF10BC704749B1CCF1200421FA68
:1007500004F411FA0CF118BF012121430843A3EB63
:100760000C01CB1D4FEA00614FEA102042BF002070
:1007700010BC704700EBC35010440029A4BF10BC4C
:100780007047401C490008BF20F0010010BC7047B2
:1007900010B5141E73F1000408DA401C41F1000189
:1007A00092185B411A4301D120F0010010BD2DE9E0
:1007B000F04D92469B4611B1B1FA81F202E0B0FAD7
:1007C00080F220329046FFF77BFF04460F4640EA56
:1007D0000A0041EA0B0153465A46084313D011461A
:1007E00053EA010019D0C8F140025046FFF777FFE5
:1007F00005460E46504659464246FFF761FF0843FC
:1008000005D0012004E020463946BDE8F08D0020E7
:10081000054346EAE0762C4337430A986305E40A29
:10082000A0EB08000022FD0A44EA47540A3002D532
:1008300000200146E9E7010510196941DDE9084595
:1008400000196941BDE8F04DA2E7C1F30A52C1F3B6
:10085000130140F2FF3341F480119A4202DA002082
:100860000146704740F233439A42A2F2334202DC1F
:100870005242FFF734BFFFF723BF0000064C074D7D
:1008800006E0E06840F0010394E807009847103460
:10089000AC42F6D3FFF77CFCAC8C0008CC8C000893
:1008A00070B58C1810F8015B15F0070301D110F832
:1008B000013B2A1106D110F8012B03E010F8016B5F
:1008C00001F8016B5B1EF9D12B0705D40023521EE2
:1008D0000DD401F8013BFAE710F8013BCB1A921C4A
:1008E00003E013F8015B01F8015B521EF9D5A14248
:1008F000D8D3002070BD00BFFEE7000010B502484D
:1009000000F016FC10BD0000E004002010B5024805
:1009100000F00EFC10BD00002004002010B50248BD
:1009200000F006FC10BD00008004002010B5024855
:1009300000F0FEFB10BD0000C00300200146087857
:1009400010381823B0FBF3F20848805CC865032A0E
:1009500005D908686FF30900001D886503E0086881
:100960006FF309008865886D704700006C8C000883
:10097000014600208A6A8B69CBB932B1012A0DD0B9
:10098000022A03D0032A10D10EE000BFCB6A03F085
:100990008073B3F1807F00D1012007E0CB6AB3F10F
:1009A000C07F00D1012001E000E000BF34E08B698E
:1009B000B3F5005F1AD132B1012A07D0022A03D061
:1009C000032A11D10AE000BF01200EE0CB6A03F038
:1009D0008073B3F1807F00D1012006E0CB6AB3F1D0
:1009E000C07F00D1012000E000BF15E032B1012A34
:1009F00005D0022A04D0032A0CD103E000BF00BFB7
:100A0000012008E0CB6A03F08073B3F1807F00D14E
:100A1000012000E000BF00BF704730B504682468C3
:100A200024F4802405682C60046863608468402C8A
:100A300004D10468A2600468E16003E00468A16076
:100A40000468E26030BD70477FB506460C46154627
:100A5000002000900190029003908DF80060F32038
:100A60008DF80100AB208DF802008DF803408DF861
:100A700004506B208DF805000621684604F07CFCCC
:100A80007FBD7FB506460C461546002000900190BC
:100A9000029003908DF800609A208DF801008DF887
:100AA00002408DF803506B208DF804000521684644
:100AB00004F062FC7FBD2DE9FF4706460F46154650
:100AC0009846DDE90D9A0C9C002000900190029060
:100AD00003908DF80060FD208DF801008DF8027004
:100AE00028128DF80300E8B28DF804008DF8058017
:100AF000200E8DF80600200C8DF80700200A8DF8D6
:100B00000800E0B28DF809008DF80A908DF80BA06E
:100B10006B208DF80C000D21684604F02DFCBDE81B
:100B2000FF877FB505460C4600200090019002909B
:100B300003908DF80050FE208DF8010098208DF86C
:100B400002008DF803406B208DF8040005216846F3
:100B500004F012FC7FBD1FB50446002000900190F8
:100B6000029003908DF80040FF208DF80100662070
:100B70008DF802006B208DF803000421684604F014
:100B8000FBFB1FBD2DE9FF4105460F4614461E46DF
:100B9000DDF82880002000900190029003908DF8ED
:100BA0000050F6208DF801008DF8027020128DF8AB
:100BB0000300E0B28DF804008DF805608DF8068022
:100BC0006B208DF807000821684604F0D5FBBDE8CE
:100BD000FF8172B600BFFEE770B590B004466A466A
:100BE00032210DA804F06CF80DA9204600F00DF894
:100BF0000DA804F021F8401E86B231460DA804F07D
:100C000049F80546284610B070BD70B504460D463B
:100C10002188284604F0D5F8A178284604F0B1F8D8
:100C2000E178284604F0ADF8E278211D284604F06A
:100C3000B0F8284604F01AF806463146284604F073
:100C4000A0F870BD2DE9F7432DED048B8EB08046E2
:100C500014464FF0010913AB01220A21404600F06F
:100C600011F96946404600F071F8074617BB9DF838
:100C700004509DF84C00854205D007200EB0BDEC15
:100C8000048BBDE8FE839DF805109DF8060041EA3F
:100C9000002006B23046FFF76DFC41EC190B9FEDCA
:100CA000060B53EC102BFFF7F6FB41EC180BFFF78C
:100CB000D5FC20603846E1E7000000000000244039
:100CC0002DE9F7432DED048B8EB0804614464FF08E
:100CD000010913AB01221021404600F0D3F8694608
:100CE000404600F033F807464FBB9DF804509DF88E
:100CF0004C00854205D007200EB0BDEC048BBDE84A
:100D0000FE839DF805109DF8060041EA00219DF83C
:100D1000070041EA00419DF8080041EA00663046BC
:100D2000FFF728FC41EC190B9FED060B53EC102B41
:100D3000FFF7B1FB41EC180BFFF790FC2060384641
:100D4000DAE7000000000000000024402DE9F04137
:100D500005460C46002084F8370000270026642052
:100D600004F03AF887E0A86803F066FF00B982E073
:100D700094F8370000F00800C8B1A86803F0FBFF42
:100D800004F8360F607840F010006070363C204662
:100D9000FFF722FF94F83610884204D004F02CF8B4
:100DA0000620BDE8F08104F027F80020F9E794F868
:100DB000370000F0040080B1A86803F0DCFF211DBB
:100DC000C855781CC7B2E078B84253D194F83700C0
:100DD00040F0080084F837004CE094F8370000F049
:100DE000020088B1A86803F0C6FFE070E0782D2803
:100DF00003DD04F001F80520D3E794F8370040F054
:100E0000040084F8370035E094F8370000F0010062
:100E100088B1A86803F0AFFFA070A078112803DDA7
:100E200003F0EAFF0420BCE794F8370040F002002A
:100E300084F837001EE03EB9A86803F09CFF064620
:100E4000052E17D0002615E0052E12D1A86803F054
:100E500092FF46EA002641F60540864201D0002670
:100E600008E0268094F8370040F0010084F837004D
:100E700000E0002600BF03F0CDFF00283FF473AF71
:100E800002208EE7F0B58FB005460E4614461F4689
:100E900044F61240ADF804008DF806608DF8074066
:100EA000002003E03A5C02A90A54401CA042F9DB8E
:100EB00001A86968FFF7A9FE284604F05FFD0FB09E
:100EC000F0BD00002DE9F0472DED028B86B00646FF
:100ED0000F46B0EE408AF0EE608A14461D46DDE90A
:100EE00010894FF00B0A03AA0B21684603F0E8FEB5
:100EF0009FED390AB4EEC08AF1EE10FA04DD9FEDE1
:100F0000360AB0EE408A0AE09FED340AB4EEC08A99
:100F1000F1EE10FA03D29FED310AB0EE408AB7EE3F
:100F2000000AF4EEC08AF1EE10FA04D2B7EE000A1D
:100F3000F0EE408A0AE09FED2A0AF4EEC08AF1EE54
:100F400010FA03DD9FED260AF0EE408A142C00DA39
:100F50001424142D00DA14253946684603F011FFD5
:100F6000B2EE040A28EE000ABDEEC00A10EE100A26
:100F700001B2684603F01CFFB2EE040A28EE800AB4
:100F8000BCEEC00A10EE100A81B2684603F019FFE9
:100F90002146684603F015FF2946684603F011FF15
:100FA0004146684603F00DFF0DF10D030B220C21A5
:100FB0003046FFF767FFB9F1000F0BD00022B0EE0B
:100FC000480A3946304600F00DF806B0BDEC028BF9
:100FD000BDE8F0870020F8E700003443000034C388
:100FE00000803B44F0B52DED028B81B006460F46E4
:100FF000B0EE408A1446002528E02CB16A463946F6
:101000003046FFF75DFE04E06A4639463046FFF79A
:1010100019FE9DED000A38EE400AF0EEC08AB7EEE8
:10102000000AF4EEC08AF1EE10FA04D8002001B0F4
:10103000BDEC028BF0BD681C85B242F21070854297
:1010400001DB0120F3E7642000F052FAD5E710B588
:1010500003F0EEFE04F06AFC10BD70B50446A56D09
:1010600000F05AFB064694F83500022808D080208C
:10107000606500BF002084F8340000BF012070BD0F
:101080002068006820F01600216808602068406928
:1010900020F0800021684861206C08B9A06C28B15C
:1010A0002068006820F00800216808602068006857
:1010B00020F001002168086010E000F02DFB801B8B
:1010C00005280BD920206065032084F8350000BF77
:1010D000002084F8340000BF0320D0E720680068B7
:1010E00000F001000028E8D194F85C103F2088400F
:1010F000A860012084F8350000BF002084F8340087
:1011000000BF00BFBBE7014691F83500022803D0BD
:101110008020486501207047052081F83500086867
:10112000006820F001000A6810600020F3E700006A
:10113000F8B50446002000908C4800684FF4165122
:10114000B0FBF1F7A56D2E6894F85C10082088407C
:10115000304098B12068006800F0040070B1206849
:10116000006820F004002168086094F85C100820F2
:101170008840A860606D40F00100606594F85C10E4
:1011800001208840304068B12068406900F080004C
:1011900040B194F85C1001208840A860606D40F078
:1011A0000200606594F85C1004208840304068B10B
:1011B0002068006800F0020040B194F85C10042040
:1011C0008840A860606D40F00400606594F85C1091
:1011D00010208840304078B32068006800F0080094
:1011E00050B394F85C1010208840A8602068006814
:1011F00000F4802080B12068006800F4002028B945
:10120000206CC8B12046216C884715E0A06C98B1CD
:101210002046A16C88470FE02068006800F48070C9
:1012200028B92068006820F0080021680860206C58
:1012300010B12046216C884794F85C10202088402B
:101240003040002865D02068006800F010000028B9
:101250005FD094F85C1020208840A86094F8350096
:10126000052828D12068006820F016002168086051
:101270002068406920F0800021684861206C08B92E
:10128000A06C28B12068006820F008002168086080
:1012900094F85C103F208840A860012084F8350055
:1012A00000BF002084F8340000BF206D10B120463C
:1012B000216D8847F8BD2068006800F4802080B167
:1012C0002068006800F4002028B9606C10B1204646
:1012D000616C88471DE0E06BD8B12046E16B884720
:1012E00017E02068006800F4807068B92068006822
:1012F00020F0100021680860012084F8350000BF4C
:10130000002084F8340000BFE06B10B12046E16B90
:101310008847606D38B3606D00F00100F0B10520C2
:1013200084F835002068006820F00100216808601A
:1013300000BF0098401C0090B84200D905E020682A
:10134000006800F001000028F3D100BF012084F8FC
:10135000350000BF002084F8340000BFE06C10B1FD
:101360002046E16C884700BFA4E700001000002081
:101370002DE9F0410446002500F0CEF9074614B9E6
:101380000120BDE8F081606A00B100BF022084F84E
:10139000350000BF002084F8340000BF20680068DA
:1013A00020F00100216808600AE000F0B5F9C01BD8
:1013B000052805D920206065032084F83500E0E782
:1013C0002068006800F001000028EED12068056860
:1013D00021480540D4E901010843E1680843216937
:1013E000084361690843A1690843E1690843216A28
:1013F00008430543606A042803D1D4E90B0108437C
:101400000543206805602068456925F00705606A86
:101410000543606A04280DD1A06A0543E06A48B11B
:101420002046FFF7A5FA28B140206065012084F826
:101430003500A6E7206845612046FFF77FFA06469B
:1014400094F85C103F208840B06000206065012067
:1014500084F83500002094E73F8010F02DE9F04734
:1014600004460D4616461F464FF00008D4F8589023
:1014700000BF94F83400012802D10220BDE8F087B3
:10148000012084F8340000BF94F83500012825D1EC
:10149000022084F83500002060653B46324629462C
:1014A0002046FFF7BAFA94F85C103F208840C9F84C
:1014B00008002068006840F0160021680860206C71
:1014C00028B12068006840F00800216808602068A2
:1014D000006840F001002168086006E000BF0020BD
:1014E00084F8340000BF4FF002084046C6E7000011
:1014F00070B5044600F010F906462546681C10B188
:1015000004480078054400BF00F006F9801BA8429B
:10151000FAD370BD0C000020F8B502460B4600253A
:10152000002400200021D6E0012606FA01F51E68FD
:1015300006EA0504AC4274D11E7906F00306012EBA
:1015400004D01E7906F00306022E13D190684F00D6
:101550000326BE40B0434F00DE68BE40304390607B
:10156000506801268E40B0431E79C6F300168E40A7
:10157000304350601E7906F00306032E09D0D06870
:101580004F000326BE40B0434F009E68BE4030432C
:10159000D0601E7906F00306022E13D1CF0802F1A7
:1015A000200656F827004E07F70E0F26BE40B04320
:1015B0004F07FF0E1E69BE403043CF0802F12006E0
:1015C00046F8270010684F000326BE40B0431E793E
:1015D00006F003064F00BE40304310605E6806F41C
:1015E0004036002E76D000BF002600963C4E36686E
:1015F00046F480463A4F3E603E46366806F48046E2
:10160000009600BF00BF374E8F0856F827008E07A0
:10161000370F0F26BE40B043334EB24202D10026F0
:1016200024E057E0314EB24201D101261EE0304E97
:10163000B24201D1022619E02E4EB24201D1032658
:1016400014E02D4EB24201D104260FE02B4EB242DF
:1016500001D105260AE02A4EB24201D1062605E054
:10166000284EB24201D1072600E008268F073F0F1F
:10167000BE4030431B4E8F0846F82700224E30688C
:10168000A0435E6806F4801606B120431E4E30600B
:10169000361D3068A0435E6806F4001606B120438C
:1016A000194E361D3060184E361F3068A0435E68F4
:1016B00006F4003606B12043134E361F3060361F45
:1016C0003068A0435E6806F4803606B120430E4EB3
:1016D000083E3060491C1029FFF426AFF8BD000019
:1016E0004438024008380140000002400004024033
:1016F00000080240000C02400010024000140240AA
:1017000000180240001C0240083C01400AB18161FF
:1017100001E00B04836170470148006870470000D6
:10172000040000200348006803490978084401497F
:1017300008607047040000200C00002010B50D4820
:10174000006840F400700B4908600846006840F4E7
:10175000806008600846006840F4807008600320DC
:1017600000F0A6F80F2000F007F800F02BF800209A
:1017700010BD0000003C024070B504460E480078E1
:101780004FF47A71B1FBF0F00C490968B1FBF0F548
:10179000284600F02FFC08B1012070BD102C07D2A4
:1017A00000222146501E00F045F80548046001E083
:1017B0000120F2E70020F0E70C00002010000020DC
:1017C0000800002008B500BF002000900E48006807
:1017D00040F480400C4908600846006800F48040EE
:1017E000009000BF00BF00BF00200090081F0068ED
:1017F00040F08050091F08600846006800F08050E3
:10180000009000BF00BF08BD4438024001460846B2
:1018100000280DDB00BF00BF00F01F0301229A402B
:1018200043099B0003F1E023C3F8002100BF00BF80
:1018300000BF70472DE9F05F80460D461646002731
:1018400004F060F9074639462A46334601F007009E
:10185000C0F1070ABAF1040F02D94FF0040A01E0FF
:10186000C0F1070AD14600F1040ABAF1070F02D20B
:101870004FF0000A01E0A0F1030AD4464FF0010A3C
:101880000AFA09FAAAF1010A0AEA020A0AFA0CFAA1
:101890004FF0010B0BFA0CFBABF1010B0BEA030B46
:1018A0004AEA0B042146404604F034F9BDE8F09FB3
:1018B00000BF00F00702064B19684FF6FF031940FE
:1018C000044B0B4343EA0221014B196000BF7047F0
:1018D0000CED00E00000FA0570B504460D460CB9A9
:1018E000012070BD5848006800F00700A84209D2E6
:1018F00055490D700846006800F00700A84201D065
:101900000120EEE7207800F0020002281DD12078A7
:1019100000F00400042805D14C48006840F4E05071
:101920004A490860207800F00800082805D1474897
:10193000006840F46040454908604448006820F071
:10194000F000A168084341490860207800F00100D8
:10195000A8B36068012807D13C4808380068C0F384
:101960004040B8B90120BCE76068022802D0606836
:10197000032807D1354808380068C0F3406048B9EB
:101980000120AEE7314808380068C0F3400008B9CC
:101990000120A6E72D48006820F003006168084395
:1019A0002A490860FFF7B8FE064609E0FFF7B4FED3
:1019B000801B41F28831884202D9032091E707E079
:1019C0002248006800F00C006168B0EB810FEDD197
:1019D0001D48006800F00700A84209D91A490D7097
:1019E0000846006800F00700A84201D0012078E70F
:1019F000207800F00400042807D11448006820F47F
:101A0000E050E168084311490860207800F00800C0
:101A1000082808D10D48006820F46040216940EA98
:101A2000C1000A49086000F03FF808490968C1F39D
:101A30000311074A515CC84006490860064800681F
:101A4000FFF79AFE00204CE7003C024008380240B5
:101A5000748C000810000020080000200148006875
:101A6000704700001000002000B5FFF7F7FF0449A1
:101A70000968C1F38221034A515CC84000BD0000DF
:101A800008380240848C000800B5FFF7E7FF0449DE
:101A90000968C1F34231034A515CC84000BD0000EF
:101AA00008380240848C00082DE9F0470024002506
:101AB0000026A1462548006800F00C0020B104284B
:101AC00005D008283AD105E0DFF8849039E0DFF846
:101AD000849036E01D48001F006800F03F041B485A
:101AE000001F006800F4800078B11A481749091FE8
:101AF0000968C1F38811A0FB01700146224600234A
:101B00003846FEF75FFB05460EE011480F49091FF6
:101B10000968C1F38811A0FB017001462246002329
:101B20003846FEF74FFB05460848001F0068C0F323
:101B30000140401C4600B5FBF6F902E0DFF81090CA
:101B400000BF00BF4846BDE8F087000008380240EB
:101B50000024F40040787D01F8B504460CB901205A
:101B6000F8BD207800F00100002874D0F948006822
:101B700000F00C0004280DD0F648006800F00C00BE
:101B8000082813D1F348001F006800F48000B0F566
:101B9000800F0BD1EF4808380068C0F340400028A0
:101BA00059D06068002856D10120D9E700BF60688D
:101BB000B0F5803F08D1E7480838006840F480302D
:101BC000E449083908601EE06068B0F5A02F0DD127
:101BD000E0480838006840F48020DE490839086091
:101BE0000846006840F4803008600CE0D9480838A6
:101BF000006820F48030D74908390860084600683A
:101C000020F48020086000BF606890B1FFF784FD79
:101C1000054606E0FFF780FD401B642801D903203C
:101C20009EE7CC4808380068C0F340400028F1D057
:101C300011E0FFF771FD054606E0FFF76DFD401B63
:101C4000642801D903208BE7C24808380068C0F334
:101C500040400028F1D1207800F0020002285FD136
:101C6000BC48006800F00C0058B1BA48006800F0A9
:101C70000C0008281CD1B748001F006800F4800041
:101C8000B0B9B44808380068C0F3400020B1E0683B
:101C9000012801D0012063E7AE480838006820F031
:101CA000F800216940EAC100AA490839086037E014
:101CB000E06800B30120A8490860FFF72DFD054644
:101CC00006E0FFF729FD401B022801D9032047E762
:101CD000A04808380068C0F340000028F1D09D48B3
:101CE0000838006820F0F800216940EAC1009949ED
:101CF0000839086014E0002097490860FFF70CFDE0
:101D0000054606E0FFF708FD401B022801D9032025
:101D100026E7904808380068C0F340000028F1D159
:101D2000207800F0080008282CD16069A8B10120B3
:101D30008A490860FFF7F0FC054606E0FFF7ECFC77
:101D4000401B022801D903200AE782486C30006852
:101D5000C0F340000028F1D014E000207F49086063
:101D6000FFF7DAFC054606E0FFF7D6FC401B022829
:101D700001D90320F4E677486C300068C0F34000D6
:101D80000028F1D1207800F00400042870D1002749
:101D900070483830006800F0805090B900BF0020D3
:101DA00000906C483830006840F080506949383104
:101DB00008600846006800F08050009000BF00BF37
:101DC00001276748006800F48070B0B96448006873
:101DD00040F4807062490860FFF79EFC054606E00B
:101DE000FFF79AFC401B022801D90320B8E65C48A3
:101DF000006800F480700028F2D000BFA0680128BD
:101E000008D154486830006840F0010051496831F9
:101E100008601DE0A06805280DD14E4868300068B4
:101E200040F004004B49683108600846006840F003
:101E3000010008600CE047486830006820F00100AD
:101E40004449683108600846006820F004000860D2
:101E500000BFA068A8B1FFF75FFC054609E0FFF7E7
:101E60005BFC401B41F28831884202D9032077E6AF
:101E700026E0384868300068C0F340000028EED003
:101E800013E0FFF749FC054608E0FFF745FC401B5F
:101E900041F28831884201D9032061E62D4868303B
:101EA0000068C0F340000028EFD1012F07D1294876
:101EB0003830006820F0805026493831086000BF73
:101EC000A069002845D02348006800F00C000828CD
:101ED0005DD0A069022845D100201F490866FFF7A0
:101EE0001BFC054606E0FFF717FC401B022801D942
:101EF000032035E6174808380068C0F34060002822
:101F0000F1D1D4E907010843616A40EA8111012255
:101F1000A06AC2EB500041EA00412C20005D41EA7A
:101F200000600C49091F086001200B490866FFF793
:101F3000F3FB054606E0FFF7EFFB401B022801D943
:101F400003200DE6034808380068C0F3406000280D
:101F5000F1D049E00838024000004742800E474275
:101F600000700040002021490866FFF7D5FB0546B8
:101F700006E0FFF7D1FB401B022801D90320EFE563
:101F80001B480068C0F340600028F2D12CE0A06933
:101F9000012800D1E4E51648001D0668A069012863
:101FA00020D006F48001E06981421BD106F03F0198
:101FB000206A814216D147F6C0703040616AB0EBAA
:101FC000811F0FD106F440310122A06AC2EB5000FC
:101FD000B1EB004F06D106F070612C20005DB1EB33
:101FE000006F01D00120BBE50020B9E500004742A9
:101FF0000038024070B504462546681EB0F1807F67
:1020000001D301200FE0681E4FF0E02148610F214D
:102010004FF0FF3003F07EFD00204FF0E02188619B
:1020200007200861002070BD7047704710B5034657
:10203000002200BF93F83C00012801D1022010BD0E
:10204000012083F83C0000BF22F0FF00CC6840EA8A
:10205000040222F440708C6840EA040222F480609A
:102060004C6840EA040222F400600C6840EA040272
:1020700022F480500C6940EA040222F400504C69BA
:1020800040EA040222F48040CC6940EA0402186865
:10209000426400BF002083F83C0000BF00BFCEE7D1
:1020A00030B502460B4600BF92F83C00012801D132
:1020B000022030BD012082F83C0000BF022082F8DF
:1020C0003D00106844681068816824F07004186846
:1020D000044310684460184D1068A8421BD0106873
:1020E000B0F1804F17D0154D1068A84213D0144D91
:1020F0001068A8420FD0134D1068A8420BD0124DA3
:102100001068A84207D0114D1068A84203D0104DA6
:102110001068A84205D121F0800158680143106879
:102120008160012082F83D0000BF002082F83C0061
:1021300000BF00BFBDE700000000014000040040F8
:1021400000080040000C0040000401400040014035
:102150000018004010B504460CB9012010BD94F8D9
:102160003D0028B9002084F83C00204600F026F805
:10217000022084F83D00211D206802F0D5FE0120D8
:1021800084F8460000BF84F83E0001213F2001553D
:10219000402001554120015500BF00BF012084F8B7
:1021A000420043200155442001554520015500BF00
:1021B000012084F83D000020D0E7000038B5044637
:1021C0009A49206888423CD100BF0020009098487E
:1021D000006840F00100964908600846006800F079
:1021E0000100009000BF00BF9248934908604FF083
:1021F000406048604021904881600021C1604FF4F8
:102200008061016189004161890081610021C161B2
:102210004FF48031016200214162FFF7A9F808B153
:10222000FEF7D7FC00BF8449E1620846846300BF23
:10223000002211461820FFF7FDFA1820FFF7E6FAF2
:10224000F3E02068B0F1804F7ED100BF0020009005
:102250007748001F006840F001007549091F0860B9
:102260000846006800F00100009000BF00BF7348FE
:10227000734908604FF0C060486040217048816039
:102280000021C1604FF480610161890041618900D2
:1022900081610021C1614FF48031016200214162FE
:1022A000FFF766F808B1FEF794FC00BF644961626D
:1022B0000846846300BF61481830624908604FF0E7
:1022C000C060486040215F4881600021C1604FF4D8
:1022D0008061016189004161890081610021C161E2
:1022E0004FF48031016200214162FFF741F808B1EB
:1022F000FEF76FFC00BF5349A1620846846300BF2C
:1023000000BF2163846300BF4C4860384E490860B9
:102310004FF0C060486040214B4881600021C1609F
:102320004FF4806101618900416189008161002170
:10233000C1614FF48031016200214162FFF718F85A
:1023400008B1FEF746FC00E009E000BF3E4820620D
:10235000846300BF00BF0146E162846365E03B49DE
:10236000206888421AD100BF002000903048001F2A
:10237000006840F020002E49091F086008460068E8
:1023800000F02000009000BF00BF0022114637205F
:10239000FFF750FA3720FFF739FA46E02C4920685A
:1023A00088420FD100BF002000902148006840F013
:1023B00002001F4908600846006800F00200009013
:1023C00000BF32E023492068884218D100BF0020B6
:1023D00000901748006840F48030154908600846AE
:1023E000006800F48030009000BF00BF002211465A
:1023F0001820FFF71FFA1820FFF708FA15E0164912
:102400002068884211D100BF002000900848001FBA
:10241000006840F040000649091F0860084600684F
:1024200000F04000009000BF00BF38BD0000014038
:1024300044380240A0640240C0030020886002408B
:102440002004002080040020E0040020001400404C
:102450000004014000400140001800402DE9F04117
:1024600004460D46002700BF94F83C00012802D125
:102470000220BDE8F081012084F83C0000BF02206A
:1024800084F83D002068866826F0770626F47F46AB
:10249000206886602868502833D00CDC202850D073
:1024A00004DC00284BD0102851D149E0302849D015
:1024B00040284CD139E060282DD0702807D0B0F5E5
:1024C000805F03D0B0F5005F41D10DE041E0D5E978
:1024D00002136A68206802F02FFE2068866846F0C2
:1024E00077062068866034E0D5E902136A682068C0
:1024F00002F022FE2068806840F4804021688860F5
:1025000027E0EA686968206802F006FF5021206829
:1025100002F01DFE1DE0EA686968206802F00FFF06
:102520006021206802F013FE13E0EA686968206801
:1025300002F0F2FE4021206802F009FE09E000BF2F
:1025400000BF00BF2968206802F001FE01E00127FA
:1025500000BF00BF012084F83D0000BF002084F8C8
:102560003C0000BF384684E72DE9F04104460D46A3
:1025700014B90120BDE8F08194F83D0028B900208D
:1025800084F83C00204600F053F8022084F83D0017
:102590002068806844F20701884321688860211D13
:1025A000206802F0C1FC2068D0F8088020688669A5
:1025B0002068076A286840EA080840F2033086432A
:1025C000A969A86840EA0120064340F60C4086430A
:1025D0004FF2F0008643E969E86840EA01200643CB
:1025E00028690001296A40EA0130064327F02207E2
:1025F00027F088076969686840EA01100743206886
:10260000C0F808802068866120680762012084F88D
:10261000460084F83E0001213F200155012084F846
:10262000420043200155012084F83D000020A1E72D
:1026300010B586B00446142101A8FDF7FBFD4F49F3
:10264000206888422FD100BF002000904C480068CD
:1026500040F002004A4908600846006800F00200A5
:10266000009000BF00BF00BF002000904448103819
:10267000006840F0010042491039086008460068CF
:1026800000F00100009000BF00BFC02001900220B8
:1026900002900020039004900220059001A939487F
:1026A000FEF73AFF67E038492068884230D100BF22
:1026B000002000903248006840F004003049086073
:1026C0000846006800F00400009000BF00BF00BF93
:1026D000002000902A481038006840F0080028497F
:1026E000103908600846006800F00800009000BF3C
:1026F00000BF4FF440500190022002900020039050
:1027000004900220059001A92048FEF705FF32E061
:102710001F49206888422ED100BF00200090184831
:10272000006840F00800164908600846006800F09C
:102730000800009000BF00BF00BF002000901048BC
:102740001038006840F001000D4910390860084653
:10275000006800F00100009000BF00BF032001905E
:10276000022002900020039004900220059001A90D
:102770000448FEF7D1FE06B010BD00000004004082
:10278000403802400000024000080040000C0240B7
:10279000000C00407047704770B504462068C5685B
:1027A0002068066906F00200022819D105F002002F
:1027B000022815D1401F2168086101202077206878
:1027C000806900F0030018B12046FFF7E4FF05E040
:1027D000204600F031F9204600F0E6F9002020778D
:1027E00006F00400042819D105F00400042815D1CE
:1027F000C04321680861022020772068806900F4C6
:10280000407018B12046FFF7C6FF05E0204600F0F3
:1028100013F9204600F0C8F90020207706F00800E0
:10282000082819D105F00800082815D1C0432168EF
:102830000861042020772068C06900F0030018B107
:102840002046FFF7A8FF05E0204600F0F5F82046F7
:1028500000F0AAF90020207706F01000102819D106
:1028600005F01000102815D1C04321680861082028
:1028700020772068C06900F4407018B12046FFF747
:102880008AFF05E0204600F0D7F8204600F08CF9DA
:102890000020207706F0010048B105F0010030B1BA
:1028A0006FF0010021680861204600F0C5FB06F0CA
:1028B0008000802809D105F08000802805D1C04320
:1028C000216808612046FFF7AFFB06F04000402872
:1028D00009D105F04000402805D1C04321680861B6
:1028E000204600F0BDFB06F02000202809D105F0AD
:1028F0002000202805D1C043216808612046FFF749
:1029000094FB70BD10B586B00446142101A8FDF7F4
:1029100091FC4249206888421ED100BF00200090EF
:102920003F48006840F010003D49086008460068D4
:1029300000F01000009000BF00BF4FF40050019065
:10294000022002900020039004900120059001A92C
:102950003448FEF7E1FD5FE02068B0F1804F39D1E7
:1029600000BF002000902E48006840F001002C4974
:1029700008600846006800F00100009000BF00BF3A
:1029800000BF002000900846006840F00200086088
:102990000846006800F00200009000BF00BF2C2035
:1029A00001900220029000200390049001200590E5
:1029B00001A91D48FEF7B0FD0820019002200290F9
:1029C0000020039004900120059001A91748FEF70C
:1029D000A3FD21E01649206888421DD100BF0020D8
:1029E00000900F48006840F004000D490860084658
:1029F000006800F00400009000BF00BF4FF440707A
:102A00000190022002900020039004900320059082
:102A100001A90848FEF780FD06B010BD0000014086
:102A20003038024000100240000002400004024022
:102A3000000401400008024070472DE9F0410446BF
:102A40000D461646002700BF94F83C00012802D12D
:102A50000220BDE8F081012084F83C0000BF36B1BF
:102A6000042E1BD0082E31D00C2E5ED145E0294615
:102A7000206802F075FB2068806940F0080021683A
:102A800088612068806920F00400216888612068DE
:102A90008069296908432168886148E029462068DF
:102AA00002F096FB2068806940F40060216888612C
:102AB0002068806920F480602168886120688069CE
:102AC000296940EA01202168886130E029462068B0
:102AD00002F0BCFB2068C06940F008002168C861B2
:102AE0002068C06920F004002168C8612068C069BE
:102AF000296908432168C86119E02946206802F065
:102B0000E1FB2068C06940F400602168C86120686A
:102B1000C06920F480602168C8612068C0692969A3
:102B200040EA01202168C86101E0012700BF00BF21
:102B300000BF002084F83C0000BF384689E710B58C
:102B400004460CB9012010BD94F83D0028B90020BE
:102B500084F83C00204600F025F8022084F83D006F
:102B6000211D206802F0E0F9012084F8460000BF32
:102B700084F83E0001213F200155402001554120AD
:102B8000015500BF00BF012084F8420043200155D9
:102B9000442001554520015500BF012084F83D0027
:102BA0000020D0E77047000010B504462068B0F15F
:102BB000804F06D1207F042803D10821014800F06E
:102BC000B1F910BD800100207047000070B50446C7
:102BD0000D4615B994F83E000BE0042D02D13F20BC
:102BE000005D06E0082D02D14020005D01E041209B
:102BF000005D012801D0012070BD1DB9022084F8BC
:102C00003E000EE0042D03D102213F20015508E0D3
:102C1000082D03D102214020015502E0022141206C
:102C2000015501222946206802F0F2F92349206863
:102C3000884203D022492068884201D1012000E067
:102C4000002028B12068406C40F4004021684864AE
:102C50001A49206888421BD02068B0F1804F17D0F5
:102C600018492068884213D01749206888420FD03D
:102C70001649206888420BD011492068884207D045
:102C800013492068884203D01249206888420CD139
:102C90002068806800F00706062E0CD020680068C7
:102CA00040F001002168086005E02068006840F0FD
:102CB00001002168086000209EE70000000001403C
:102CC000000401400004004000080040000C0040E7
:102CD00000400140001800402DE9F04704460D4631
:102CE00016461F464FF0000815B994F83E000BE059
:102CF000042D02D13F20005D06E0082D02D14020C6
:102D0000005D01E04120005D022801D1BDE8F087AF
:102D100015B994F83E000BE0042D02D13F20005D70
:102D200006E0082D02D14020005D01E04120005D59
:102D3000012818D106B10FB90120E7E71DB902201B
:102D400084F83E0011E0042D03D102213F200155FB
:102D50000BE0082D03D102214020015505E002219E
:102D60004120015501E00120D0E735B1042D1FD0ED
:102D7000082D38D00C2D6CD150E06049606AC163D9
:102D80005F49606A01645F49606AC164216801F15A
:102D900034023B463146606AFEF760FB08B1012011
:102DA000B4E72068C06840F400702168C86053E050
:102DB0005249A06AC1635249A06A01645149A06A9C
:102DC000C164216801F138023B463146A06AFEF732
:102DD00045FB08B1012099E72068C06840F4806095
:102DE0002168C86038E04549E06AC1634449E06A47
:102DF00001644449E06AC164216801F13C023B4638
:102E00003146E06AFEF72AFB08B101207EE7206820
:102E1000C06840F400602168C8601DE03749206B3D
:102E2000C1633749206B01643649206BC164216856
:102E300001F140023B463146206BFEF70FFB08B123
:102E4000012063E72068C06840F480502168C860B2
:102E500002E04FF0010800BF00BFB8F1000F4AD1F7
:102E600001222946206802F0D3F8274920688842C9
:102E700003D026492068884201D1012000E00020CB
:102E800028B12068406C40F40040216848641E4925
:102E9000206888421BD02068B0F1804F17D01C49B1
:102EA0002068884213D01B49206888420FD01A49F5
:102EB000206888420BD015492068884207D01749FE
:102EC0002068884203D01649206888420DD12068C6
:102ED000806800F00709B9F1060F0CD0206800687F
:102EE00040F001002168086005E02068006840F0BB
:102EF000010021680860404608E7000033500008E0
:102F00009B500008DB500008000001400004014015
:102F10000004004000080040000C00400040014058
:102F20000018004070B504460D46002635B1042D4A
:102F30000ED0082D16D00C2D28D11DE02068C068B9
:102F400020F400702168C860606AFEF7DCF81FE0BA
:102F50002068C06820F480602168C860A06AFEF71D
:102F6000D2F815E02068C06820F400602168C860CD
:102F7000E06AFEF7C8F80BE02068C06820F48050D3
:102F80002168C860206BFEF7BEF801E0012600BF93
:102F900000BF002E4AD100222946206802F038F8EE
:102FA00023492068884203D022492068884201D101
:102FB000012000E0002090B100BF2068006A41F2CB
:102FC0001111084050B92068006A8910084028B9DA
:102FD0002068406C20F400402168486400BF00BFB6
:102FE0002068006A41F21111084050B92068006A57
:102FF0008910084028B92068006820F00100216885
:10300000086000BF1DB9012084F83E000EE0042DC9
:1030100003D101213F20015508E0082D03D10121F2
:103020004020015502E0012141200155304670BD8C
:103030000000014000040140074A0168914209D1A3
:1030400006490968491C054A11601146096809B119
:103050000021116070470000001400405000002063
:1030600070477047704700002DE9F84F044620680C
:1030700005682068C668206847694FF00009CA469D
:1030800005F00F09B9F1000F0AD105F0200038B1A1
:1030900006F0200020B1204602F0E0F9BDE8F88FEC
:1030A000B9F1000F7CD007F0010018B906F4907058
:1030B000002875D005F0010030B106F4807018B119
:1030C000606C40F00100606405F0040030B107F06E
:1030D000010018B1606C40F00200606405F002006D
:1030E00030B107F0010018B1606C40F0040060647A
:1030F00005F0080048B106F0200010B907F0010003
:1031000018B1606C40F008006064606C002846D024
:1031100005F0200028B106F0200010B1204602F092
:103120009DF920684069C0F3801A606C00F00800C7
:1031300010B9BAF1000F2DD0204602F049F92068ED
:10314000406900F04000402820D100BF00BF216846
:10315000143151E8001F21F040002168143141E88A
:103160000002002AF3D100BFE06B50B17748E16B59
:103170000865E06BFDF7C7FF88B1E06B016D88471C
:103180000DE02046FFF76EFF09E009E02046FFF75B
:1031900069FF04E02046FFF765FF002060647DE7DB
:1031A000206B012878D105F01000002874D006F0BB
:1031B00010000028FAD000BF0020009020680068AE
:1031C000009020684068009000BF00BF2068406900
:1031D00000F04000402860D1E06B006840681FFAB2
:1031E00080F8B8F1000F56D0A08D404553DDA4F80B
:1031F0002E80E06BC069B0F5807F43D000BF00BF78
:1032000021680C3151E8001F21F4807021680C31D5
:1032100041E80002002AF3D100BF00BF00BF2168CF
:10322000143151E8001F21F001002168143141E8F8
:103230000002002AF3D100BF00BF00BF2168143193
:1032400051E8001F21F040002168143141E80002DC
:10325000002AF3D100BF202084F842000020206320
:1032600000BF00BF21680C3151E8001F21F01000A1
:1032700021680C3141E80002002AF3D100BFE06B65
:10328000FDF7EBFE02206063A08DE28D801A81B213
:103290002046FFF7E6FE01E742E0A08DE18D401AEF
:1032A0001FFA80F8E08DD0B3B8F1000F37D000BF1F
:1032B00000BF21680C3151E8001F21F49070216893
:1032C0000C3141E80002002AF3D100BF00BF00BF6B
:1032D0002168143151E8001F21F0010021681431E8
:1032E00041E80002002AF3D100BF202084F8420008
:1032F0000020206300BF00BF21680C3151E8001F8F
:1033000021F0100021680C3141E80002002AF3D1BD
:1033100000BF0220606341462046FFF7A2FEBDE6E3
:1033200005F0800030B106F0800018B1204602F0B0
:1033300049FAB3E605F0400030B106F0400018B19C
:10334000204602F07BF8A9E600BFA7E6BD530008BF
:1033500010B504460CB9012010BDA06900B100E011
:1033600000BF94F8410028B9002084F840002046AE
:1033700000F02AF8242084F841002068C06820F476
:1033800000502168C860204602F0E6F82068006915
:1033900020F49040216808612068406920F02A00EC
:1033A000216848612068C06840F400502168C86006
:1033B00000206064202084F8410084F8420000204E
:1033C000606300BFC8E7000010B586B00446142152
:1033D00001A8FCF72FFFC9492068884239D100BFF6
:1033E00000200090C648006840F40020C4490860EE
:1033F0000846006800F40020009000BF00BF00BF36
:1034000000200090BE481038006840F00400BC491D
:10341000103908600846006800F00400009000BF02
:1034200000BF4FF440600190022002900020039002
:10343000032004900820059001A9B248FEF76CF81B
:10344000002211463420FEF7F5F93420FEF7DEF9AC
:1034500052E1AD492068884255D100BF002000905C
:10346000A748006840F48010A54908600846006835
:1034700000F48010009000BF00BF00BF002000904B
:103480009F481038006840F004009D4910390860DA
:103490000846006800F00400009000BF00BF00BFB5
:1034A000002000900846006840F0080008600846C8
:1034B000006800F00800009000BF00BF8814019071
:1034C0000220029000200390032004900820059021
:1034D00001A98C48FEF720F80420019002200290F8
:1034E00000200390032004900820059001A987483C
:1034F000FEF712F8002211463520FEF79BF9352021
:10350000FEF784F9F8E08249206888423BD100BF89
:10351000002000907A48001D006840F010007849B3
:10352000091D08600846006800F01000009000BF08
:1035300000BF00BF0020009071481038006840F0C4
:1035400001006F49103908600846006800F001006A
:10355000009000BF00BF4FF4C060019002200290B5
:1035600000200390032004900720059001A96948DA
:10357000FDF7D2FF002211462520FEF75BF925203A
:10358000FEF744F9B8E064492068884238D100BFAA
:10359000002000905A48006840F400305849086004
:1035A0000846006800F40030009000BF00BF00BF74
:1035B0000020009052481038006840F00800504940
:1035C000103908600846006800F00800009000BF4D
:1035D00000BF602001900220029000200390032091
:1035E00004900720059001A94848FDF795FF0022A7
:1035F00011462620FEF71EF92620FEF707F97BE08C
:1036000046492068884239D100BF002000903C48DC
:10361000006840F480203A4908600846006800F4D9
:103620008020009000BF00BF00BF00200090344801
:103630001038006840F0020031491039086008462F
:10364000006800F00200009000BF00BF4FF440602F
:103650000190022002900020039003200490072094
:10366000059001A92E48FDF757FF0022114627209B
:10367000FEF7E0F82720FEF7C9F83DE02949206869
:10368000884239D100BF002000901D48001D00680D
:1036900040F020001A49091D08600846006800F043
:1036A0002000009000BF00BF00BF00200090144821
:1036B0001038006840F004001149103908600846CD
:1036C000006800F00400009000BF00BFC02001901F
:1036D000022002900020039003200490082005900F
:1036E00001A90848FDF718FF002211464720FEF700
:1036F000A1F84720FEF78AF806B010BD004C004044
:10370000403802400008024000500040000C0240D7
:10371000001001400000024000440040004800400A
:10372000000402400014014070B504460D461646E0
:1037300094F8420020280BD105B10EB9012070BDCC
:103740000020206332462946204602F01BF8F6E7A7
:103750000220F4E72DE9F04704462D49206888420D
:1037600009D12C480578284600F0EEF801222949B5
:103770002948FFF7D9FF29492068884209D12848FC
:103780000678304604F014FA012225492548FFF74F
:10379000CBFF25492068884209D12448077838465C
:1037A00003F058F9012221492148FFF7BDFF2149C3
:1037B000206888420AD1204890F80080404605F0F1
:1037C000ADF801221C491D48FFF7AEFF1C492068D7
:1037D00088420AD11B4890F80090484605F010F93D
:1037E000012218491848FFF79FFF184920688842AE
:1037F0000CD1174890F800A016498868514601F08E
:10380000A4FA012212491448FFF78EFFBDE8F087A1
:103810000010014045000020D00500200048004075
:1038200044000020600600200044004043000020C7
:1038300018060020004C00404600002040050020F3
:10384000005000404700002088050020001401407F
:1038500048000020382F0020A80600202DE9F84F4E
:1038600004460E46174699464FF0000A94F8410068
:10387000202850D106B117B90120BDE8F88F0020EB
:103880006064212084F84100FDF746FF8246A7844A
:10389000E784A068B0F5805F04D1206910B90025E5
:1038A000B04602E035464FF000081EE053460022C5
:1038B00080212046CDF8009001F0B4FF20B12020F7
:1038C00084F841000320D8E745B9B8F80000C0F3F8
:1038D00008002168486008F1020803E028782168A0
:1038E00048606D1CE08C401EE084E08C0028DDD137
:1038F0005346002240212046CDF8009001F092FF6F
:1039000020B1202084F841000320B6E7202084F86D
:1039100041000020B1E70220AFE7704710B5002456
:1039200009E0064801194FF47A7301220448FFF7B1
:1039300095FF601CC4B2052CF3DB10BDA80000206D
:10394000D005002000BFFEE770B52DED068B0446C4
:103950005248007888B9552C0FD101204F49087082
:1039600000204F490870084601780078401C4C4AF6
:1039700010704C4820F811408CE04848007801282D
:1039800079D1474801780078401C454A1070454875
:1039900020F81140104600780B287BDB00203F49BF
:1039A00008700120404908700020114608703D4809
:1039B000408853285DD13B4989883A4A927941EA47
:1039C000022108B2FCF7D6FD41EC1A0B9FED370B34
:1039D00053EC102BFCF75FFD41EC190B9FED350B01
:1039E00053EC102BFCF7E5FC41EC180BFCF736FE12
:1039F000324908602B4909892A4A927A41EA022110
:103A000008B2FCF7B7FD41EC1A0B9FED280B53EC05
:103A1000102BFCF740FD41EC190B9FED260B53ECEE
:103A2000102BFCF7C6FC41EC180BFCF717FE2349E2
:103A300048601C4989891B4A927B41EA022108B2ED
:103A4000FCF798FD41EC1A0B9FED180B53EC102B73
:103A5000FCF721FD41EC190B9FED160B53EC102BDD
:103A6000FCF7A7FC41EC180BFCF7F8FD1349886044
:103A700000BF0FE0FFE70020084908700849087000
:103A8000002505E00020074921F81500681CC5B293
:103A90000B2DF7DBBDEC068B70BD00008B0000200A
:103AA0008A000020240B00208C0000200000000071
:103AB0000000E0400000000000806640F00A0020A6
:103AC00010B50446052C52D2DFE804F0031323336B
:103AD0004300002204212748FDF718FE0022102190
:103AE0002448FDF713FE002208212248FDF70EFEB0
:103AF0003DE0012204211F48FDF708FE00221021AD
:103B00001C48FDF703FE002208211A48FDF7FEFDC0
:103B10002DE0002204211748FDF7F8FD01221021B5
:103B20001448FDF7F3FD002208211248FDF7EEFDD1
:103B30001DE0002204210F48FDF7E8FD00221021BE
:103B40000C48FDF7E3FD012208210A48FDF7DEFDE0
:103B50000DE0012220210748FDF7D8FD3220FDF7B6
:103B6000C7FC002220210348FDF7D0FD00BF00BFA5
:103B700010BD00000010024008B500BF00200090FA
:103B80001E48006840F400101C49086008460068A0
:103B900000F40010009000BF00BF00BF00200090A4
:103BA0000846006840F4800008600846006800F499
:103BB0008000009000BF00BF002211460C20FDF7DE
:103BC00039FE0C20FDF722FE002211461020FDF7E1
:103BD00031FE1020FDF71AFE002211461120FDF7DC
:103BE00029FE1120FDF712FE002211464520FDF7A7
:103BF00021FE4520FDF70AFE08BD000030380240D6
:103C000000B587B0142102A8FCF714FB00BF002008
:103C100001906448006840F010006249086008465E
:103C2000006800F01000019000BF00BF00BF00203E
:103C300001900846006840F080000860084600686F
:103C400000F08000019000BF00BF00BF0020019085
:103C50000846006840F0010008600846006800F06F
:103C60000100019000BF00BF00BF00200190084686
:103C7000006840F0020008600846006800F002009A
:103C8000019000BF00BF00BF0020019008460068FF
:103C900040F0080008600846006800F00800019045
:103CA00000BF00BF00BF002001900846006840F040
:103CB000040008600846006800F00400019000BF9E
:103CC00000BF00223C213848FDF720FD0022C3211F
:103CD0003648FDF71BFD002209213548FDF716FD8A
:103CE00001224FF440713148FDF710FD3C20029055
:103CF0000120039000200490059002A92A48FDF7B6
:103D00000BFC10200290002003900220049002A9D6
:103D10002848FDF701FCC3200290012003900020F9
:103D20000490059002A92148FDF7F6FB48F28000B7
:103D30000290002003900220049002A91A48FDF787
:103D4000EBFB4FF4404002900020039002200490CF
:103D500002A91648FDF7E0FB012002900390002025
:103D60000490059002A91248FDF7D6FB08200290A6
:103D700001200390022004900020059002A90C4825
:103D8000FDF7CAFB4FF44070029011200390012010
:103D900004900220059002A90448FDF7BDFB07B07E
:103DA00000BD000030380240001002400004024014
:103DB000000C0240000002401FB50020009001905E
:103DC000029003900E480F490860002048600021CF
:103DD0000C4881604FF6FF71C16000210161816173
:103DE000FEF7B8F908B1FCF7F4FE4FF480500090EC
:103DF00069460448FEF732FB08B1FCF7EAFE1FBD36
:103E0000001800407803002000B595B00020119004
:103E10001290139014900F9010901C2108A8FCF79A
:103E200009FA20216846FCF705FA2A482A49086061
:103E3000062048600021284881601D21C1600021C2
:103E4000016141618161FEF785F908B1FCF7C1FEAE
:103E50004FF48050119011A91F48FEF7FFFA08B1E6
:103E6000FCF7B7FE1C48FEF76AFE08B1FCF7B1FE8E
:103E700000200F9010900FA91748FEF711F908B114
:103E8000FCF7A7FE60200890002009900A900B9094
:103E90000C900D900E90082208A90F48FEF7CDFD5A
:103EA00008B1FCF796FE002000900190029003906C
:103EB00004904FF400500590002007906946064892
:103EC000FEF7B4F808B1FCF784FE0348FEF71AFDCC
:103ED00015B000BD000001403801002000B58DB0D4
:103EE000002009900A900B900C90079008901C21DC
:103EF0006846FCF79FF94FF080402C490860452048
:103F0000486000212948816045F6BF51C160002109
:103F1000016180218161FEF71DF908B1FCF759FEAE
:103F20004FF48050099009A92048FEF797FA08B18C
:103F3000FCF74FFE1D48FEF702FE08B1FCF749FEF4
:103F400000200790089007A91848FEF7A9F808B1C3
:103F5000FCF73FFE6020009000200190029004904A
:103F6000002269461148FEF768FD08B1FCF731FEF2
:103F7000042269460D48FEF760FD08B1FCF729FEF2
:103F8000082269460948FEF758FD08B1FCF721FEF2
:103F90000C2269460548FEF750FD08B1FCF719FEF2
:103FA0000248FEF7AFFC0DB000BD0000800100200C
:103FB00000B58BB0242102A8FCF73CF9002000904A
:103FC00001901848184908600B20486000211648E5
:103FD000816040F27751C16000210161816101205F
:103FE000029000200390012004900020059006908C
:103FF000079001200890002009900A9002A90A4821
:10400000FEF7B2FA08B1FCF7E4FD00200090019041
:1040100069460548FEF744F808B1FCF7DAFD0BB035
:1040200000BD000000040040C801002000B58BB0B6
:10403000242102A8FCF7FEF8002000900190184807
:1040400018490860002048600021164881604FF63A
:10405000FF71C16000210161816101200290002097
:104060000390012004900020059006900790012005
:104070000890002009900A9002A90A48FEF774FAF5
:1040800008B1FCF7A6FD00200090019069460548A4
:10409000FEF706F808B1FCF79CFD0BB000BD000070
:1040A000000800401002002000B58BB0242102A8B7
:1040B000FCF7C0F8002000900190174817490860ED
:1040C00000204860002115488160491EC160002120
:1040D0000161816101200290002003900120049081
:1040E000002005900690079001200890002009907C
:1040F0000A9002A90948FEF737FA08B1FCF769FDF2
:1041000000200090019069460448FDF7C9FF08B1FE
:10411000FCF75FFD0BB000BD000C00405802002012
:104120001CB50020009001900E480F49086042F233
:10413000CF00486000210C48816042F20F71C160DD
:1041400000218161FEF706F808B1FCF742FD00206E
:104150000090019069460448FDF7A2FF08B1FCF702
:1041600038FD1CBD00140040A002002000B595B031
:10417000002011901290139014900F9010901C2119
:1041800008A8FCF757F820216846FCF753F82F4899
:104190002F4908608B20486000212D48816045F63A
:1041A000BF51C16000210161416180218161FDF742
:1041B000D1FF08B1FCF70DFD4FF48050119011A90B
:1041C0002348FEF74BF908B1FCF703FD2048FEF742
:1041D000B6FC08B1FCF7FDFC00200F9010900FA971
:1041E0001B48FDF75DFF08B1FCF7F3FC6020089069
:1041F000002009900A900B900C900D900E900822D0
:1042000008A91348FEF719FC08B1FCF7E2FC0C22E0
:1042100008A90F48FEF711FC08B1FCF7DAFC0020F2
:10422000009001900290039004904FF4005005908C
:104230000020079069460648FDF7F8FE08B1FCF734
:10424000C8FC0348FEF75EFB15B000BD000401404A
:10425000E80200201FB5002000900190029003901A
:104260000E480F49086044F29F10486000210C4836
:104270008160C721C160002101618161FDF76AFF92
:1042800008B1FCF7A6FC4FF4805000906946044842
:10429000FEF7E4F808B1FCF79CFC1FBD00400140AC
:1042A0003003002010B50B480B4908604FF4E13093
:1042B0004860002108488160C16001610C214161B2
:1042C00000218161C161FFF743F808B1FCF781FC6F
:1042D00010BD0000004C00404005002010B50B4808
:1042E0000B4908604FF4E1304860002108488160C4
:1042F000C16001610C21416100218161C161FFF751
:1043000027F808B1FCF765FC10BD00000050004024
:104310008805002010B50B480B4908604FF4E130C8
:104320004860002108488160C16001610C21416141
:1043300000218161C161FFF70BF808B1FCF749FC6E
:1043400010BD000000100140D005002010B50B4842
:104350000B4908604FF4E130486000210848816053
:10436000C16001610C21416100218161C161FEF7E1
:10437000EFFF08B1FCF72DFC10BD00000044004029
:104380001806002010B50B480B4908604FF4165072
:104390004860002108488160C16001610C214161D1
:1043A00000218161C161FEF7D3FF08B1FCF711FC68
:1043B00010BD0000004800406006002010B50B480A
:1043C0000B4908604FF4E1304860002108488160E3
:1043D000C16001610C21416100218161C161FEF771
:1043E000B7FF08B1FCF7F5FB10BD00000014014059
:1043F000A806002000BFFEE700BFFEE710B5174883
:1044000090ED020ADFED160A20EE200ABDEEC00A8A
:1044100010EE102A13A1174801F04AFA0F4890ED48
:10442000000ADFED0F0A20EE200ABDEEC00A10EEF2
:10443000102A11A10F4801F03BFA084890ED010A3B
:10444000DFED070A20EE200ABDEEC00A10EE102AAA
:104450000DA1084801F02CFA10BD0000F00A002060
:1044600000007A4478302E76616C3D2564FFFFFFB2
:10447000000000001806002078312E76616C3D2582
:1044800064FFFFFF0000000078322E76616C3D254E
:1044900064FFFFFF0000000000200CE0002106E0A8
:1044A0000022064B03EBC0135A544A1CD1B2802998
:1044B000F6DB421CD0B20828F0DB7047F006002083
:1044C00030B587B0002406E0002500E06D1CB5F58E
:1044D0007A7FFBD3641CB4F57A7FF5D3142102A84C
:1044E000FBF7A8FE00BF002001900B48006840F0D9
:1044F0000200094908600846006800F002000190C7
:1045000000BF00BFFFF77CFB012000F0B1F80120E5
:1045100000F0C2F807B030BD3038024070B5054633
:10452000002411E080212141294009B1012100E04E
:104530000021084600F0B0F8012000F099F80020B2
:1045400000F096F8601CC4B2082CEBDB012000F0F0
:104550008FF8002000F08CF870BD10B5012000F03D
:104560009BF8012000F084F8002000F095F800206E
:1045700000F07EF810BD10B5002000F08DF801208D
:1045800000F076F8012000F087F810BD10B5FFF7B5
:1045900097FFAE2000F094F8D52000F091F880202D
:1045A00000F08EF8A82000F08BF83F2000F088F88B
:1045B000D32000F085F8002000F082F8402000F0C1
:1045C0007FF8A12000F07CF8C82000F079F8DA200C
:1045D00000F076F8122000F073F8812000F070F8F7
:1045E000CF2000F06DF8D92000F06AF8F12000F03B
:1045F00067F8DB2000F064F8302000F061F8A420B8
:1046000000F05EF8A62000F05BF88D2000F058F86E
:10461000142000F055F8AF2000F052F8FFF73CFFEF
:1046200000F012F810BD70B505460C4645F0B0001C
:1046300000F046F8102141EA141000F041F804F0AF
:104640000F0000F03DF870BD10B500240BE0002114
:104650002046FFF7E8FF054901EBC410802100F078
:104660003FF8601CC4B2082CF1DB10BDF00600203E
:1046700070B50446002505E0002600E0761C052EF6
:10468000FCD36D1C052DF7D3224640210148FDF7D0
:104690003DF870BD0004024070B50446002505E0F9
:1046A000002600E0761C052EFCD36D1C052DF7D3EB
:1046B000224680210148FDF729F870BD0004024020
:1046C00010B50446FFF749FF7820FFF727FF0020C9
:1046D000FFF724FF2046FFF721FFFFF74CFF10BD37
:1046E00070B505460E46FFF738FF7820FFF716FF36
:1046F0004020FFF713FF002404E0285DFFF70EFFC2
:10470000601CC4B2B442F8DBFFF735FF70BD000097
:1047100070B52DED048B6A4800781E2803DC6848CC
:1047200000780D2807DA674800781E2835DC6548D0
:1047300000780D2831DB6248007800EE100AB8EEF0
:10474000400A10EE100AFBF75EFF41EC190B9FEDDB
:104750005E0B53EC102BFBF72CFE41EC180BFBF718
:104760001AFF05465748007800EE100AB8EE400AD6
:1047700010EE100AFBF747FF41EC190B9FED520BAF
:1047800053EC102BFBF715FE41EC180BFBF703FF66
:10479000044601204E49087038E0494800780D2849
:1047A00006DC484800780D2802DC012048490870E2
:1047B0004348007800EE100AB8EE400A10EE100AE6
:1047C000FBF721FF41EC190B9FED420B53EC102B33
:1047D000FBF7EFFD41EC180BFBF7DDFE0546394812
:1047E000007800EE100AB8EE400A10EE100AFBF74F
:1047F0000AFF41EC190B9FED370B53EC102BFBF725
:10480000D8FD41EC180BFBF7C6FE0446A5421BDBA6
:10481000082D00DB082500EE105AF8EEC00A2948E2
:10482000007800EE100AB8EE400A60EE800A2448D4
:10483000007800EE100AB8EE400A80EE801ABDEE55
:10484000C10A10EE104A1AE0082C00DB082400EE22
:10485000104AF8EEC00A1A48007800EE100AB8EEC6
:10486000400A60EE800A1748007800EE100AB8EEA1
:10487000400A80EE801ABDEEC10A10EE105A1748A9
:104880000078012806D0022807D0032808D0042881
:104890000CD108E06D4200BF08E000BF00BF05E09A
:1048A00000BF644202E06D42644200BF00BF0022CC
:1048B0002146284601F080F8BDEC048B70BD000055
:1048C00066000020670000207B14AE47E17AB43F09
:1048D000EC0000209A9999999999C93F65000020A8
:1048E00070B52DED048B6A4800781E2803DC6848FB
:1048F00000780D2807DA674800781E2835DC6548FF
:1049000000780D2831DB6248007800EE100AB8EE1E
:10491000400A10EE100AFBF776FE41EC190B9FEDF2
:104920005E0B53EC102BFBF744FD41EC180BFBF72F
:1049300032FE05465748007800EE100AB8EE400AED
:1049400010EE100AFBF75FFE41EC190B9FED520BC6
:1049500053EC102BFBF72DFD41EC180BFBF71BFE66
:10496000044601204E49087038E0494800780D2877
:1049700006DC484800780D2802DC01204849087010
:104980004348007800EE100AB8EE400A10EE100A14
:10499000FBF739FE41EC190B9FED420B53EC102B4A
:1049A000FBF707FD41EC180BFBF7F5FD0546394811
:1049B000007800EE100AB8EE400A10EE100AFBF77D
:1049C00022FE41EC190B9FED370B53EC102BFBF73C
:1049D000F0FC41EC180BFBF7DEFD0446A5421BDBA7
:1049E000052D00DB052500EE105AF8EEC00A294817
:1049F000007800EE100AB8EE400A60EE800A244803
:104A0000007800EE100AB8EE400A80EE801ABDEE83
:104A1000C10A10EE104A1AE0052C00DB052400EE56
:104A2000104AF8EEC00A1A48007800EE100AB8EEF4
:104A3000400A60EE800A1748007800EE100AB8EECF
:104A4000400A80EE801ABDEEC10A10EE105A1748D7
:104A50000078012806D0022807D0032808D00428AF
:104A60000CD108E06D4200BF08E000BF00BF05E0C8
:104A700000BF644202E06D42644200BF00BF0022FA
:104A80002146284600F098FFBDEC048B70BD000065
:104A900062000020630000207B14AE47E17AB43F3F
:104AA000EC0000209A9999999999B93F61000020EA
:104AB000704710B500F0A6F800F002F810BD000035
:104AC00010B5D823024A08210248FEF705F910BDA7
:104AD000940B00203801002077B505460E460024CF
:104AE0002C4605E02046029900F006F8601CC4B28E
:104AF000B442F7DD7EBD000013B50246082A00DD92
:104B00001CBD002016E09DF80510052391FBF3F174
:104B1000C0F107040123A340194009B1142100E0AA
:104B20000A2102EB4203204C04EB431343F820100C
:104B3000411CC8B20828E6DB082016E09DF80410E6
:104B4000052391FBF3F1C0F10F040123A3401940A9
:104B500009B1142100E00A2102EB4203124C04EBDC
:104B6000431343F82010411CC8B21028E6DB102084
:104B700016E09DF80610052391FBF3F1C0F1170430
:104B80000123A340194009B1142100E00A2102EBDE
:104B90004203054C04EB431343F82010411CC8B2F8
:104BA0001828E6DB00BFABE7940B002008B51248DD
:104BB0000078124908701048007848700E48007854
:104BC00088700F480188ADF8001080788DF80200D9
:104BD00007210020009AFFF77FFF08480188ADF801
:104BE000001080788DF8020007210020009AFFF75E
:104BF00073FFFFF75EFF08BD300100203101002088
:104C0000A18C0008002005E00022044941F8202082
:104C1000411CC8B21828F7DB70470000940E002032
:104C200030B50446204600F01CF80546204600F04A
:104C300003F8281A80B230BD00B502469088D188AA
:104C4000884209DD104600F00CF89188D388C91A13
:104C5000491E401A80B200BDD0889188401A80B2A7
:104C6000F9E701460889401E80B27047F0B5064654
:104C70003046FFF7E1FF07460025002406E0A1B219
:104C8000304600F007F82844C5B2641CBC42F6DB8D
:104C9000E8B2F0BD70B504460D462046FFF7CCFFE4
:104CA000A84201DC002070BDA0882844401C218956
:104CB00090FBF1F201FB120086B22068805DF2E702
:104CC00030B50B46026000218180C180591C0181F2
:104CD000002104E0002405686C544C1CA1B2048936
:104CE0008C42F7DC30BD10B504462046FFF798FF34
:104CF00002462046FFF7B5FF824201D1012010BDD8
:104D00000020FCE710B504462046FFF789FF08B9EC
:104D1000012010BD0020FCE730B504462046FFF717
:104D2000E2FF08B1002030BDA088401C218990FB23
:104D3000F1F201FB1200A080A1882068455C0020F0
:104D4000A288216888542846EDE730B504460D4610
:104D50002046FFF7D7FF10B12046FFF7DDFFE088C0
:104D6000401C218990FBF1F201FB1200E080E188F8
:104D70002068455430BD10B504462046FFF7CCFFEF
:104D800010BD30B504460D4629462046FFF7DDFF2D
:104D900030BDF0B507460D461646002405E0295DF6
:104DA0003846FFF7D2FF601C84B2B442F7DBF0BD97
:104DB00033B5044601AD022229462046FFF7E9FF3C
:104DC0003CBD33B5044601AD022229462046FFF71B
:104DD000E0FF3CBD7047000001B50649009808603F
:104DE0004FF0E020006940F001004FF0E021086141
:104DF00008BD0000340100200020054908604FF084
:104E0000E020006920F001004FF0E02108617047C8
:104E1000340100200348006808B9012070470020D1
:104E2000FCE700003401002010B5FCF77BFC10BD4E
:104E30007047000000B593B0302107A8FBF7FAF9DE
:104E4000142102A8FBF7F6F900BF002001902548C5
:104E5000006840F08050234908600846006800F070
:104E60008050019000BF00BF00BF002001901E488D
:104E7000006840F480401C4908600846006800F45F
:104E80008040019000BF00BF0220079001200A90DF
:104E900010200B9002200D9000210E9108210F91FF
:104EA000A8211091022111910421129107A8FCF769
:104EB00053FE08B1FBF78DFE0F20029002200390F5
:104EC000002004904FF4A05005904FF480500690BD
:104ED000052102A8FCF700FD08B1FBF77AFE13B02C
:104EE00000BD0000403802400070004003480068E8
:104EF00040F47000014908607047000088ED00E050
:104F000010B50348FDF748FC0248FDF745FC10BD0D
:104F1000380100203003002010B50248FDF73CFCAA
:104F200010BD0000A002002010B502682D4B984271
:104F30000ED0B0F1804F0BD02B4B984208D02B4BAA
:104F4000984205D02A4B984202D02A4B984203D16E
:104F500022F070024B681A43224B984220D0B0F1E5
:104F6000804F1DD0204B98421AD0204B984217D02A
:104F70001F4B984214D01F4B984211D01E4B9842A1
:104F80000ED01E4B98420BD01D4B984208D01D4BA3
:104F9000984205D01C4B984202D01C4B984203D13A
:104FA00022F44072CB681A4322F080034C6943EA32
:104FB000040202608B68C3620B688362094B9842EB
:104FC00002D00C4B984201D10B690363012343616A
:104FD000036903F001031BB1036923F001030361BB
:104FE00010BD000000000140000400400008004027
:104FF000000C00400004014000400140004401401A
:105000000048014000180040001C00400020004003
:1050100030B501F01F05012404FA05F3046A9C432E
:105020000462046A01F01F0502FA05F52C430462CC
:1050300030BD70B50546AC6B606AA84207D101204F
:105040002077E86918BB012084F83E001FE0A06AC1
:10505000A84207D102202077E869C0B901213F208A
:10506000015514E0E06AA84207D104202077E869DE
:1050700068B901214020015509E0206BA84206D102
:1050800008202077E86910B9012141200155204608
:10509000FDF78AFD0020207770BD70B50546AC6B2A
:1050A000606AA84202D10120207710E0A06AA842DD
:1050B00002D1022020770AE0E06AA84202D104204F
:1050C000207704E0206BA84201D1082020772046F9
:1050D000FDF77AFD0020207770BD70B50546AC6BFA
:1050E000606AA84204D10120207784F83E001DE0C8
:1050F000A06AA84205D10220207701213F20015556
:1051000014E0E06AA84205D1042020770121402064
:1051100001550BE0206BA84205D108202077012122
:105120004120015502E0012084F83D002046FDF7B2
:1051300031FB0020207770BD30B50C46816821F42A
:105140007F4142EA032525432943816030BD0A4659
:10515000816821F0700142F00703194381607047B4
:1051600030B5026A056A25F0010505624368846965
:1051700024F0700424F003040D682C4322F0020292
:105180008D682A43104DA84200D103E00F4DA8427C
:1051900006D100BF22F00802CD682A4322F00402A3
:1051A000094DA84202D0094DA84207D123F48073CB
:1051B00023F400734D692B438D692B434360846155
:1051C0004D684563026230BD0000014000040140AB
:1051D00030B5026A056A25F01005056243688469E6
:1051E00024F4E04424F440740D6844EA052422F0D9
:1051F00020028D6842EA0512124DA84200D103E058
:10520000114DA84207D100BF22F08002CD6842EACA
:10521000051222F040020B4DA84202D00A4DA842CE
:1052200009D123F4806323F400634D6943EA8503C5
:105230008D6943EA8503436084614D68856302623A
:1052400030BD0000000001400004014030B5026A9A
:10525000056A25F4807505624368C46924F070040A
:1052600024F003040D682C4322F400728D6842EA96
:105270000522124DA84200D103E0114DA84207D1EA
:1052800000BF22F40062CD6842EA052222F4806267
:105290000A4DA84202D00A4DA84209D123F48053F6
:1052A00023F400534D6943EA05138D6943EA05135E
:1052B0004360C4614D68C563026230BD00000140B7
:1052C0000004014030B5036A056A25F48055056283
:1052D0004468C26922F4E04222F440720D6842EA56
:1052E000052223F400538D6843EA0533084DA84294
:1052F00002D0084DA84204D124F480444D6944EA08
:1053000085144460C2614D680564036230BD0000CD
:10531000000001400004014030B50B461446026A0B
:10532000056A25F001050562816921F0F00141EA75
:10533000041122F00A021A438161026230BD30B5C5
:105340000B461446026A056A25F01005056281695C
:1053500021F4704141EA043122F0A00242EA031232
:105360008161026230BD000010B50248FDF77CFE8D
:1053700010BD00004005002070B505460E46002413
:1053800004E0285D00F006F8601C84B2B442F8DB4B
:1053900070BD000001B54FF47A73012269460248DE
:1053A000FEF75CFA08BD00004005002010B5024879
:1053B000FDF75AFE10BD00008805002070B50546B7
:1053C000AC6B0020E085E0842046FDF74BFE70BD0D
:1053D00000BF00BF02680C3252E8002F22F4907127
:1053E00002680C3242E80013002BF3D100BF00BF6B
:1053F00000BF0268143252E8002F22F00101026857
:10540000143242E80013002BF3D100BF016B0129D5
:105410000ED100BF00BF02680C3252E8002F22F00C
:10542000100102680C3242E80013002BF3D100BFD8
:10543000202180F8421000210163704710B5044616
:105440002068C06820F040002168C860202084F8EF
:1054500041002046FEF761FA002010BDF8B5044671
:1054600094F84200222875D1A068B0F5805F0CD175
:10547000206950B90025A66A20684068C0F308007A
:105480003080A06A801CA06215E0A56A0026A06892
:10549000B0F5805F03D0A06828B9206918B92068EA
:1054A0004068287004E02068406800F07F002870A1
:1054B000A06A401CA062E08D401E80B2E0850028FA
:1054C00046D12068C06820F020002168C8602068AC
:1054D000C06820F480702168C8602068406920F0AE
:1054E000010021684861202084F8420000206063A8
:1054F000206B012826D10020206300BF00BF216857
:105500000C3151E8001F21F0100021680C3141E8F6
:105510000002002AF3D100BF2068006800F01000EC
:1055200010280AD100BF0020009020680068009079
:1055300020684068009000BF00BFA18D2046FDF7A5
:1055400090FD02E02046FEF705F90020F8BD01E0DD
:105550000020FBE70220F9E72DE9F84F0446206818
:10556000006920F44050E16808432168086121691E
:10557000A068084361690843E16908430090206816
:10558000C06849F20C618843009908432168C860EB
:105590002068406920F44070A1690843216848618F
:1055A00076492068884203D075492068884203D133
:1055B000FCF76AFA814602E0FCF756FA8146E06998
:1055C000B0F5004F6CD102206168A0FB015003468A
:1055D0001920A9FB007001462A463846FAF7F2FD69
:1055E0006421B0FBF1F04FEA001A02206168A0FBD1
:1055F00001510B461920A9FB00712A463846FAF7DB
:10560000E1FD834602206168A0FB0150034619209A
:10561000A9FB00712A463846FAF7D4FD6421B0FB95
:10562000F1F000EBC00101EB0010ABEB8000322188
:1056300001EBC0006421B0FBF1F000F0F8000AEBD0
:10564000400A02206168A0FB015003461920A9FB13
:10565000007001462A463846FAF7B4FD8346022018
:105660006168A0FB015003461920A9FB00712A467E
:105670003846FAF7A7FD6421B0FBF1F000EBC0015A
:1056800001EB0010ABEB8000322101EBC000642184
:10569000B0FBF1F000F007005044216888606AE038
:1056A00004206168A0FB015003461920A9FB00708B
:1056B00001462A463846FAF785FD8246042061688D
:1056C000A0FB015003461920A9FB007001462A46A1
:1056D0003846FAF777FD6421B0FBF1F000EBC0012A
:1056E00001EB0010AAEB8000322101EB00106421D5
:1056F000B0FBF1F000F0F00A04206168A0FB01703B
:1057000003461920A9FB00513A462846FAF75AFDEC
:105710006421B0FBF1F00AEB001A04206168A0FBE1
:1057200001510B461920A9FB00712A463846FAF7A9
:1057300049FD834604206168A0FB015003461920FF
:10574000A9FB007001462A463846FAF73BFD642162
:10575000B0FBF1F000EBC00101EB0010ABEB8000FF
:10576000322101EB00106421B0FBF1F000F00F00DA
:10577000504421688860BDE8F88F000000100140A7
:105780000014014010B5034699629A85DA8500201D
:105790005864222083F84200186928B11868C0684C
:1057A00040F480701C68E0601868406940F00100B7
:1057B0001C6860611868C06840F020001C68E060E8
:1057C000002010BD014691F84100212828D18868A9
:1057D000B0F5805F0BD1086948B90A6A1088C0F338
:1057E00008000B685860086A801C086205E00B6AB4
:1057F000581C086218780B685860C88C401E80B22C
:10580000C88458B90868C06820F080000B68D86068
:105810000868C06840F040000B68D86000207047FE
:105820000220FCE72DE9F84304460D46174698464A
:10583000089E31E0701C70B3FBF76EFFA0EB080010
:10584000B04200D816B90320BDE8F8832068C068CC
:1058500000F00400F8B1802D1ED0402D1CD020682F
:105860000068C0F3C000B0B100BF00200090206805
:105870000068009020684068009000BF00BF20468C
:10588000FFF7A6FD0820606400BF002084F84000F8
:1058900000BF0120D8E7FFE7206800682840A84241
:1058A00001D1012000E00020B842C3D00020CBE7A6
:1058B0000FB430B5A1B0054626A8209080216846D7
:1058C000209B259A00F004F90446A2B24FF0FF3362
:1058D00069462846FDF7C2FF00202090204621B0EF
:1058E00030BC5DF814FB000010B50248FDF7BCFBAE
:1058F00010BD0000D005002010B50248FDF7B4FB34
:1059000010BD00001806002010B50248FDF7ACFBE2
:1059100010BD00006006002010B50248FDF7A4FB92
:1059200010BD0000A806002000BFFEE710B50B4820
:105930000B4908600B480C4908600C4AC1140C481C
:10594000FFF7BEF90B4A4FF400610B48FFF7B8F9B7
:105950000948054988600648486010BD00100140AC
:10596000101F002000140140382F00201C1F0020B1
:10597000202F00201D2700202C2F002070B504466A
:1059800007E06068FFF7C8F905462946206800F07F
:1059900007F86068FFF750F90028F2D170BD0000E9
:1059A00013B504464FF47A73012201A90148FDF7AB
:1059B00055FF1CBDA80600202DE9F04704460D4602
:1059C00016466719A4EB0508A4EB050904EB050AC4
:1059D0003146384600F01DF80F20FBF789FD3146AF
:1059E000404600F02DF80F20FBF782FD3146484677
:1059F00000F03EF80F20FBF77BFD3146504600F0EB
:105A00004FF80F20FBF774FD0020FBF7A4F8BDE86A
:105A1000F08738B504460D46002C07DB0120A2B202
:105A20002B4600210090FBF7ADF808E00120009024
:105A3000604282B22B4601210846FBF7A3F838BD2D
:105A400038B504460D46002C08DB0120A2B22B46D7
:105A5000014600900220FBF795F808E00120009035
:105A6000604282B22B4600210220FBF78BF838BD42
:105A700038B504460D46002C08DB0120A2B22B46A7
:105A8000002100900320FBF77DF808E00120009042
:105A9000604282B22B4601210320FBF773F838BD28
:105AA00038B504460D46002C08DB0120A2B22B4677
:105AB000014600900420FBF765F808E00120009003
:105AC000604282B22B4600210420FBF75BF838BD10
:105AD0007CB50C001D461646014601D0601E00E054
