:020000040800F2
:10000000000002203D020008A9000008A900000825
:10001000A9000008A9000008A900000800000000CD
:10002000000000000000000000000000A90000081F
:10003000A900000800000000A90000084100000815
:10004000024A136801331360704700BF00000020AC
:10005000034A116813685B1A8342FBD3704700BFE1
:10006000000000204FF04023D3F800281206FBD5F3
:10007000C3F80408704708B5411E11F8010F00B914
:1000800008BDFFF7EFFFF8E710B50146054C03097F
:1000900001F00F01E05CFFF7E5FF605CBDE8104098
:1000A000E0E700BF78040008FEE77FB51646044687
:1000B00041224FF04023D3F8000C850601D5013AC8
:1000C0002AD1D3F8002CD3F8043C651823464FF00E
:1000D0004022D2F8001C0806FBD513F8011BC2F819
:1000E000041CAB42F5D14FF04022D2F8003C590637
:1000F000FBD52248FFF7BFFF3046FFF7BCFF204883
:10010000FFF7B9FF14F8010BFFF7BEFFAC4206D0B2
:100110002020FFF7A7FFF5E7D3F8040CCBE7194839
:10012000FFF7A9FF184A6E461568314600244FF0C4
:10013000402013685B1B132B05D984B9134804B006
:10014000BDE8704097E7D0F8003C9B06F1D5102C35
:10015000D0F8043C1CBF01F8013B0134E9E70C482E
:10016000FFF789FF002516F8010BFFF78DFF01351A
:100170002020FFF777FFA542F5D1DFE789040008CB
:1001800091040008950400080000002050050008B4
:100190009704000807B5074B074A186800901B79B9
:1001A0008DF8043005216846FFF77FFF03B05DF846
:1001B00004FB00BFC40500089F0400081FB54FF6EC
:1001C0000553ADF8003000238DF803303C2242F295
:1001D0000303CDE901236B238DF80C30064A074B4E
:1001E0008DF80200002818BF1A460D216846FFF757
:1001F0005CFF05B05DF804FBBC040008A304000824
:1002000007B54FF20563ADF8003000238DF80330D9
:10021000074B0193074A084B8DF80200002818BFCE
:100220001A4608216846FFF740FF03B05DF804FB5B
:100230001E00006BED040008D504000808B50A4A4A
:100240000A4B0B498B4206D30A4B0B4A00219342BF
:1002500006D300F013F852F8040B43F8040BF1E74F
:1002600043F8041BF3E700BFCC05000800000020A2
:100270000000002000000020040000202DE9FF41C4
:100280004FF0E02343F67F625A61002607229E6109
:100290001A61704BDFF8C081D3F830286F4F42F0FD
:1002A0000602C3F83028D3F8402842F44022C3F8AD
:1002B0004028D3F840386A4BD3F8002422F4401287
:1002C00042F40012C3F80024D3F8242422F470620C
:1002D00042F4E062C3F82424D3F8002422F440025C
:1002E00042F40002C3F80024D3F8242422F470421C
:1002F00042F4E042C3F82424D3F8002822F4401248
:1003000042F40012C3F80028D3F8242822F47062C3
:1003100042F40062C3F82428D3F8002822F44002F3
:1003200042F40002C3F80028D3F8242822F47042D3
:1003300042F40042C3F82428D3F80C2822F44002E7
:1003400042F48002C3F80C284FF040238B2142F284
:100350000C0240F2DC50C3F80C68C3F80818C3F86C
:100360000C28C3F80C6CC3F8081CC3F80C2CFFF75E
:100370006FFE3C48FFF77FFE4046FFF77CFE0136EC
:1003800001AA3346002415464FF00A0CB3FBFCF0DB
:100390000CFB1031303102F8011B1946092904F118
:1003A00001040346F2D8013C285DFFF75BFE002CF8
:1003B000F9D12D48FFF75FFE2C4A0197042128460A
:1003C000FFF773FE1420FFF743FEF3238DF805308B
:1003D00040F2AB13264AADF8063006214FF4D6435F
:1003E0002846ADF80830FFF760FE4FF4FA70FFF7CB
:1003F0002FFE2046FFF704FF4FF4FA70FFF728FEA8
:10040000FFF7C8FE4FF41670FFF722FE0120FFF73A
:10041000F7FE4FF4FA70FFF71BFEFFF7BBFE4FF439
:100420001670FFF715FE2046FFF7C8FE4FF4487020
:10043000FFF70EFE0120FFF7C1FE4FF44870FFF7F3
:1004400007FE0C48FFF717FE4FF47A60FFF700FE37
:1004500092E700BF0030024053050008050E526BC2
:1004600000000240050500085A0500086105000863
:10047000740500089B0500083031323334353637B7
:100480003839414243444546002020E58F913A20C7
:100490000020205B005D002020E59B9E3A2000E5C7
:1004A000819C00E4BD8DE7BDAE20E58F8DE8BDAC3D
:1004B0002038303020E88489E586B200E4BD8DE73D
:1004C000BDAE20E6ADA3E8BDAC2038303020E884D6
:1004D00089E586B200E9809FE5BAA620E58F8DE820
:1004E000BDAC203330E8BDAC2FE5888600E9809FA5
:1004F000E5BAA620E6ADA3E8BDAC203330E8BDAC3C
:100500002FE58886000D0A0D0A3D3D3D3D3D203515
:1005100020E58FB728E58D87E9998D29E794B5E621
:100520009CBAE6B58BE8AF95203D3D3D3D3D202092
:1005300028E6B58BE5AE8CE8AEB0E5BE97E783A7BD
:10054000E59B9EE6ADA3E5BC8FE7A88BE5BA8F29B6
:100550000D0A000D0AE7ACAC200020E8BDAE0D0A84
:1005600000E8A7A3E999A4E5A0B5E8BDACE4BF9D68
:10057000E68AA400E4BDBFE883BD28E78EB0E59C11
:10058000A8E68BA7E794B5E69CBAE5BA94E8AFA5D0
:10059000E68BA7E4B88DE58AA829002020E8BF995A
:1005A000E4B880E8BDAEE5819AE5AE8CE38082E7F1
:1005B00094B5E69CBAE58AA8E4BA86E59097EFBCC4
:0C05C0009F0D0A0005FE98006B00000073
:0400000508000040AF
:00000001FF
