:020000040800F2
:10000000000002202D030008270100082701000836
:100010002701000827010008270100080000000050
:1000200000000000000000000000000027010008A0
:100030002701000800000000270100084100000817
:10004000024A136801331360704700BF00000020AC
:10005000034A116813685B1A8342FBD3704700BFE1
:10006000000000204FF04023D3F800281206FBD5F3
:10007000C3F80408704708B5411E11F8010F00B914
:1000800008BDFFF7EFFFF8E710B50146054C03097F
:1000900001F00F01E05CFFF7E5FF605CBDE8104098
:1000A000E0E700BF7C0700087FB501AB00211E46DA
:1000B0000A25B0FBF5F405FB1402303203F8012BDE
:1000C0000246092A01F101012046F2D80139705C8B
:1000D000FFF7C8FF0029F9D104B070BD01444FF00B
:1000E0004023D3F8002C1206FBD510F8012BC3F8DF
:1000F000042C8842F5D14FF04022D2F8003C5B0638
:10010000FBD5704741224FF04023D3F8001C8906ED
:1001100001D5013A04D1D3F8002CD3F8043C704740
:10012000D3F8041CF1E7FEE70B4930B50D68024631
:100130004FF0402400200B685B1B1D2B00D930BD05
:10014000D4F8003C9B06F6D52028D4F8043C1CBF0C
:1001500013540130EFE700BF000000202DE9F04705
:1001600006468AB06348FFF786FF3046FFF79CFFDC
:100170006148FFF780FFFFF7C5FF24238DF80530A6
:1001800003216B2301A88DF806308DF80460FFF77A
:10019000A5FF02A8FFF7C8FF0DF1080A00240546D5
:1001A00053460422A146954263DC5448FFF763FF9F
:1001B0000DF108080027AF426DDB5148FFF75BFFE8
:1001C000FFF7A0FF01A83A2303218DF80530FFF7C0
:1001D00085FF02A8FFF7A8FF0027054602AB032210
:1001E000B846954262DC4748FFF745FF0026AE421D
:1001F0006BDB4348FFF73FFFB9F1000F70D0424877
:10020000FFF739FF4FF47A76B4FBF6F52846FFF78F
:100210004BFF2E20FFF726FF06FB15406425B0FBA1
:10022000F5F0FFF741FFB4FBF5F30A2005FB13449B
:10023000B4FBF0F0FFF738FF3448FFF71CFFB8F1CC
:10024000000F11D0324B334817F0010F18BF18467A
:10025000FFF711FF3A0702D52F48FFF70CFF7B0786
:1002600002D52E48FFF707FF2D480AB0BDE8F0473A
:1002700001E713F8011BB1420BD11978242908D1E9
:10028000D9786B2901BF59789C784FF0010944EA6D
:100290000124013287E718F8010B0137FFF7F4FE5C
:1002A000AF428ADA2020FFF7DDFE84E713F8011B56
:1002B000B14208D119783A2905D199786B2904BF40
:1002C0005F784FF0010801328BE71AF8010B013615
:1002D000FFF7DAFEAE428CDA2020FFF7C3FE86E796
:1002E000B8F1000FAED10F480F4B002D18BF1846C4
:1002F000B8E700BFD4070008DE070008E1070008E0
:10030000EF070008F20700080008000809080008C5
:100310008D070008980700080B0800081C08000853
:10032000970B0008C6070008A307000808B50A4A8B
:100330000A4B0B498B4206D30A4B0B4A00219342CE
:1003400006D300F013F852F8040B43F8040BF1E75E
:1003500043F8041BF3E700BFFC0C0008000000207A
:100360000000002000000020040000204FF0E023E7
:1003700043F67F622DE9F3415A61002607229E6110
:100380001A61E34BE34CD3F8302842F00602C3F87D
:100390003028D3F8402842F44022C3F84028D3F84C
:1003A0004038D4F8003423F4401343F40013C4F865
:1003B0000034D4F8243423F4706343F4E063C4F8C5
:1003C0002434D4F8003423F4400343F40003C4F885
:1003D0000034D4F824344FF0402523F4704343F420
:1003E000E0434FF08B0842F20C07C4F8243440F28B
:1003F000DC50C5F80C68C5F80888C5F80C78FFF71C
:1004000027FEC548FFF737FED4F80038C34823F469
:10041000401343F40013C4F80038D4F8243823F40C
:10042000706343F40063C4F82438D4F8003823F42C
:10043000400343F40003C4F80038D4F8243823F40C
:10044000704343F40043C4F82438C5F80C6CC5F875
:10045000088CC5F80C7CFFF70EFED4F8003823F4A6
:100460004003C4F80038D4F80C3823F4400343F4B4
:1004700000030520C4F80C38FFF7EAFDD4F8106833
:10048000D4F80C3823F4400343F48003C4F80C3848
:10049000FFF7DEFDD4F81058D4F80C38A04823F448
:1004A0004003C4F80C38C6F3C026FFF7E4FD30461D
:1004B000FFF7FAFDC5F3C0259A48FFF7DCFD284693
:1004C000FFF7F2FD002E00F01481002D00F01681E0
:1004D0009548FFF7D0FDD4F8003823F44013C4F852
:1004E0000038D4F80C3823F4401343F40013C4F854
:1004F0000C380520FFF7ACFDD4F81058D4F80C38B0
:1005000023F44013C4F80C38D4F8003823F4401313
:1005100043F48013C4F800384FF08063C4F81838EF
:100520000220FFF795FD4FF48063D4F81068C4F8FB
:100530001838FFF78DFDC5F380257C48D4F81048A6
:10054000FFF799FD2846FFF7AFFDC6F380267848F0
:10055000FFF791FD3046FFF7A7FDC4F380247548EF
:10056000FFF789FD2046FFF79FFD7348FFF783FDE6
:10057000002E00F0C5807148714E724FDFF8C881BF
:10058000FFF779FD634B7148D3F8002822F440123D
:1005900042F40012C3F80028D3F8242822F4706231
:1005A00042F40062C3F82428D3F8002822F4400261
:1005B00042F40002C3F80028D3F8242822F4704241
:1005C00042F40042C3F82428D3F80C2822F4400255
:1005D00042F48002C3F80C28FFF74DFD0120FFF71D
:1005E000BDFD0220FFF7BAFD0320FFF7B7FD042091
:1005F000FFF7B4FD0520FFF7B1FD5548FFF73BFDC0
:1006000001253846FFF737FDECB22846FFF74CFDD1
:10061000042C14BF30684046FFF72DFD0E23042143
:100620008DF80130684646F65233ADF802308DF849
:100630000040FFF753FD0520FFF70AFDF3238DF877
:10064000013040F2AB130621ADF8023068464FF49A
:10065000D643ADF80430FFF741FD0520FFF7F8FC65
:10066000F62308218DF8013068463A4B01930024A7
:10067000ADF80240FFF732FD4FF47A70FFF7E8FC67
:10068000FE238DF8013098238DF8023005216B236D
:1006900068468DF804300135FFF720FD4FF4967061
:1006A000FFF7D6FC052D06F10406AAD12A482B4EE9
:1006B0002B4DFFF7E0FC40F6B830FFF7C9FC0134E2
:1006C0003046FFF7D8FC2046FFF7EEFC2846FFF740
:1006D000D2FC0120FFF742FD0220FFF73FFD03207F
:1006E000FFF73CFD0420FFF739FD0520FFF736FD3D
:1006F000E1E70DB11B48ECE61B48EAE61B48E8E6DB
:100700000CB91B4838E70DB11A4835E71A4833E7EA
:100710000030024000000240360800088E08000841
:10072000A9080008BC080008C8080008C909000892
:10073000E2090008F2090008970B0008020A000805
:10074000F00C0008220C0008270800089A0B00088B
:10075000D30B00081E0A006B2F0C00089E0C00082B
:10076000A90C0008100900086A090008B50900086A
:100770008E0A0008C30A00080B0B00083031323320
:100780003435363738394142434445460020E5B7D1
:10079000B2E4BDBFE883BD0020E6B2A1E4BDBFE87E
:1007A00083BD00202D3E20E694B6E588B0E4BA86ED
:1007B000E5AD97E88A82E4BD86E6A0BCE5BC8FE49F
:1007C000B88DE5AFB900202D3E20E6B2A1E59B9E95
:1007D000E5A48D002020E59CB0E59D8020003A2016
:1007E00000E794B5E58E8BE59B9EE5A48D5B005DEF
:1007F0002000E78AB6E68081E59B9EE5A48D5B003C
:1008000020E794B5E58E8B3D00560020E29885E503
:10081000A0B5E8BDACE4BF9DE68AA40020E29885BF
:10082000E5A0B5E8BDAC0020E58FB728E5B7A6E5A3
:10083000908E290D0A000D0A0D0A3D3D3D3D3D20DB
:10084000554152543428504331302F5043313129CF
:1008500020E794B5E69CBAE9809AE8AEAFE6B58B9E
:10086000E8AF95203D3D3D3D3D202028E6B58BE598
:10087000AE8CE8AEB0E5BE97E783A7E59B9EE6ADFC
:10088000A3E5BC8FE7A88BE5BA8F290D0A000D0AF6
:100890005B315D20E5BC95E8849AE794B5E5B9B392
:1008A000E6B58BE8AF950D0A002020504331313A70
:1008B00020E4B88BE68B89E697B63D0020E4B88A41
:1008C000E68B89E697B63D0020202D3E20E69C89E8
:1008D000E8AEBEE5A487E68A8AE5AE83E68B89E9C1
:1008E000AB98EFBC9AE9A9B1E58AA8E599A8E79A7F
:1008F0008420545820E68EA5E4B88AE4BA86E4B889
:1009000094E69C89E794B52028E5A5BD290D0A0049
:1009100020202D3E20E682ACE7A9BAEFBC9A5043D6
:10092000313120E4B88AE4BB80E4B988E983BDE6CC
:10093000B2A1E68EA528E9A9B1E58AA8E599A82083
:10094000545820E6B2A1E68EA5E588B02050433188
:1009500031EFBC8CE68896E9A9B1E58AA8E599A8AB
:10096000E6B2A1E794B5290D0A0020202D3E20E82B
:10097000A2ABE68B89E588B0E4BD8EE794B5E5B916
:10098000B3EFBC9A5043313120E5928C20474E445E
:1009900020E79FADE8B7AFEFBC8CE68896E68EA562
:1009A000E79A84E8AEBEE5A487E6B2A1E4B88AE798
:1009B00094B50D0A0020202D3E20E8AFBBE695B08F
:1009C000E5BC82E5B8B80D0A002020504331303A2A
:1009D00020E4B88BE68B89E8BE93E585A5E697B65B
:1009E0003D0020E8BE93E587BA30E8AFBBE59B9EAB
:1009F0003D0020E8BE93E587BA31E8AFBBE59B9E9A
:100A00003D0020202D3E20E29885E8BE93E587BA80
:100A1000203020E58DB4E8AFBBE588B02031EFBCD5
:100A20009A5043313020E8A2ABE588ABE79A84E8DE
:100A3000AEBEE5A487E79A84E8BE93E587BAE9A14C
:100A4000B6E4BD8F28E6AF94E5A682E69F90E4B8B1
:100A5000AAE9A9B1E58AA8E599A8E79A842054589B
:100A600020E99499E68EA5E59CA8205043313020DA
:100A7000E4B88A29EFBC8CE68896E68EA5E588B0B6
:100A8000E4BA8620332E33562F35560D0A00202027
:100A90002D3E20E29885E8BE93E587BA203120E517
:100AA0008DB4E8AFBBE588B02030EFBC9A5043313D
:100AB0003020E5928C20474E4420E79FADE8B7AF49
:100AC0000D0A0020202D3E20E883BDE6ADA3E5B849
:100AD000B8E68B89E9AB98E68B89E4BD8EEFBC8CD8
:100AE000E5A496E99DA2E69C89E9A9B1E58AA8E575
:100AF00099A820525820E68A8AE5AE83E4B88AE6AF
:100B00008B892028E5A5BD290D0A0020202D3E2037
:100B1000E883BDE6ADA3E5B8B8E68B89E9AB98E616
:100B20008B89E4BD8EEFBC9BE4BD86E5A496E99D70
:100B3000A2E6B2A1E69C89E4B88AE68B89EFBC8C78
:100B4000E58FAFE883BDE9A9B1E58AA8E599A820BA
:100B5000525820E6B2A1E68EA5E588B02050433178
:100B60003028E69C89E79A84E9A9B1E58AA8E59945
:100B7000A820525820E4B88DE5B8A6E4B88AE68BE0
:100B800089EFBC8CE8BF99E69DA1E4BB85E4BE9BE0
:100B9000E58F82E88083290D0A000D0A5B325D2013
:100BA000E8AFBBE6AF8FE4B8AAE9A9B1E58AA8E54A
:100BB00099A8285043313020E58F91E997AEEFBCDA
:100BC0008C5043313120E694B6E59B9EE5A48D29F7
:100BD0000D0A000D0A5B335D203420E4B8AAE8BD9D
:100BE000AEE5AD90E4BE9DE6ACA1E685A2E8BDAC65
:100BF000203120E7A79228E8BDA6E8A681E69EB6A8
:100C0000E7A9BAEFBC8129EFBC9AE79C8BE593AAD0
:100C1000E4B8AAE8BDAEE5AD90E8BDACE4BA860D97
:100C20000A002020E78EB0E59CA8E8BDAC2000209B
:100C300020E8BDACE5AE8CE4BA86E38082E593AAF9
:100C4000E4B8AAE8BDAEE5AD90E6B2A1E8BDACEF70
:100C5000BC8CE5B0B1E698AFE982A3E4B8AAE9A9F3
:100C6000B1E58AA8E599A8E6B2A1E694B6E588B010
:100C7000205043313020E79A84E68C87E4BBA428D7
:100C8000E6B2A1E794B52FE7BABFE696AD2FE59C93
:100C9000B0E59D80E4B88DE5AFB9290D0A000D0AD5
:100CA0005B325D20E7ACAC200020E6ACA1E9878D8B
:100CB000E696B0E8AFBBE9A9B1E58AA8E599A80D29
:100CC0000A0020E58FB728E58FB3E5898D290D0A45
:100CD0000020E58FB728E5B7A6E5898D290D0A0024
:100CE00020E58FB728E58FB3E5908E290D0A000027
:0C0CF000C20C0008D10C0008E00C000849
:0400000508000040AF
:00000001FF
